S00E000074696D6572732E7372656382
S11300003024FE1FA94D000039480000A54D000012
S1130010A54D0000A54D0000A54D00000000000006
S1130020000000000000000000000000A54D0000DA
S1130030A54D000000000000A54D0000A54D0000E6
S1130040011400005914000011130000FFFFFFFF0A
S1130050FFFFFFFFFFFFFFFFFFFFFFFFFFFFFFFFAC
S1130060FFFFFFFFFFFFFFFFFFFFFFFFFFFFFFFF9C
S1130070FFFFFFFFFFFFFFFFFFFFFFFFFFFFFFFF8C
S1130080FFFFFFFFFFFFFFFFFFFFFFFFFFFFFFFF7C
S1130400FFFFFFFFFFFDFFFFFFFFFFFFFFFFFFFFFA
S1130410FFFFFFFFFFFFFFFFFFFFFFFFFFFFFFFFE8
S1130420FFFFFFFFFFFFFFFFFFFFFFFFFFFFFFFFD8
S1130430FFFFFFFFFFFFFFFFFFFFFFFFFFFFFFFFC8
S1130440FFFFFFFFFFFFFFFFFFFFFFFFFFFFFFFFB8
S1130450FFFFFFFFFFFFFFFFFFFFFFFFFFFFFFFFA8
S1130460FFFFFFFFFFFFFFFFFFFFFFFFFFFFFFFF98
S1130470FFFFFFFFFFFFFFFFFFFFFFFFFFFFFFFF88
S1130480FFFFFFFFFFFFFFFFFFFFFFFFFFFFFFFF78
S1130490FFFFFFFFFFFFFFFFFFFFFFFFFFFFFFFF68
S11304A0FFFFFFFFFFFFFFFFFFFFFFFFFFFFFFFF58
S11304B0FFFFFFFFFFFFFFFFFFFFFFFFFFFFFFFF48
S11304C0FFFFFFFFFFFFFFFFFFFFFFFFFFFFFFFF38
S11304D0FFFFFFFFFFFFFFFFFFFFFFFFFFFFFFFF28
S11304E0FFFFFFFFFFFFFFFFFFFFFFFFFFFFFFFF18
S11304F0FFFFFFFFFFFFFFFFFFFFFFFFFFFFFFFF08
S11305008803FE1F860D14209003FE1F880D1440DF
S11305108C03FE1F870D14502000000020000100F2
S11305202F0000002F0001000C000100110000004A
S1130530300000003000010024000000240001000D
S11305402400020024000300240004002400050009
S11305501300000017000000230000002100000029
S1130560210001000700000007000100070002004D
S11305700700030007000400070005000700060049
S113058007000700120000004400000008000000FB
S11305900B0000004100000040000000400001008A
S11305A004000000430000002B0000002B000A00A0
S11305B02B000B002B000C002B000D002B00010066
S11305C02B0002002B0003002B0004002B0005006D
S11305D02B0006002B0007002B0008002B0009004D
S11305E00600000006000A0006000B0006000C00CE
S11305F006000D0006000E0006000F0006000100B4
S113060006000200060003000600040006000500C0
S113061006000600060007000600080006000900A0
S11306201500000015000100150002003100000053
S11306302A00000045000000100000000301000033
S113064003000000030001000F0000000D00000083
S11306502D000000420000002C0000002C000100CE
S11306602C0002002C0003003200000028000000CF
S1130670180000001400000014000100140002001F
S11306801400030014000400140005001400060004
S113069014000700140008001400090034000000CE
S11306A034000100160000001600010035000000AF
S11306B03600000036000100220000003300000074
S11306C0330100002900000010B5054C237833B92C
S11306D0044B13B10448AFF300800123237010BD11
S11306E0F402FE1F00000000806B0000084B10B5F0
S11306F01BB108480849AFF300800848036803B9F0
S113070010BD074B002BFBD0BDE81040184700BFBD
S113071000000000806B0000F802FE1F4C02FE1F68
S11307200000000040B10123052104220170437040
S1130730C370827000207047012070472DE9F0419A
S113074082B002AC002544F8045D1D4E089D376953
S1130750164622469846B8479DF804302B70054645
S113076018B1284602B0BDE8F0815FB2DCB27B0963
S1130770203304F01F0013490122824041F8232052
S1130780384604F0E7F9002F11DB07F16043360126
S113079003F56143F6B283F800630B4B1B6853F80F
S11307A037302846C3F8008002B0BDE8F081074A1C
S11307B004F00F0336011A44F6B21676EDE700BFD3
S11307C0F460000000E100E098660000FCEC00E04A
S11307D030B129B11D4B42689A4203D007207047BB
S11307E00120704770B58268002382B004460E462B
S11307F04B600B602AB391681068009301938B6976
S113080069469847E278009B02F0030203FB02F377
S11308107360E06888B1836800689B69002500956F
S1130820019569469847E278009B02F0030203FBB6
S113083002F32846336002B070BD4FF0FF333360DB
S1130840F9E74FF0FF334B60E3E700BF55494353EB
S113085050B149B142B110B40B4B44689C4205D02D
S113086007205DF8044B704701207047C37803F0FC
S11308700303022B01D00020F3E7114311F0010F11
S11308800CBF00200320ECE755494353F0B583B077
S113089005460F461646FFF7DBFF044688B9EA789B
S11308A0A86802F0030260B183680094013A9B696E
S11308B0019400686946D6409847009B9E4202D93D
S11308C0012003B0F0BDAB680122AA709A681868D1
S11308D0556821463A46B3B2A84703B0F0BD00BFFD
S11308E030B5946883B0002C32D01468002C2FD01B
S11308F052686AB312685AB30978D57894786FF35A
S113090087156FF345140229D570947023D0D178DC
S11309106FF30511D17019460346124A1B7802A8D9
S11309200024142501940094ADF8063000F8045D09
S113093013696A4698479DF90030213308D0069A16
S1130940BDF802301380079B20461C7003B030BDF5
S1130950012003B030BDE9B2012464F30511D17064
S1130960D9E700BFF460000010B50C4620B18368DD
S113097013B1DB6900689847236833B19A6822B1E0
S1130980D2691868BDE81040104710BD08B90320AB
S113099070472DE9F04F89B00024049008A81D4643
S11309A000F8084D0291039203F012FF374B0794AD
S11309B09B699DF8180007A9984718B1032009B04E
S11309C0BDE8F08F079B05931946314BDFF8C890BB
S11309D0A1FB03ABCDE900AB074698464FEA112BC8
S11309E0049BB9F8006003FB06F6059BB3FBF6F421
S11309F004F1FF3ABAF1FF0F3DD8534606FB04F465
S1130A00B2461E461DE0B4FBFBF27F2A02FB03F351
S1130A1031D9002BB8BFFF331B12A3F5C333A03B5E
S1130A20002BB8BF5B42434506DA03999846029B04
S1130A30C1F8009017461E702F60CAEB0404D6B1AB
S1130A40013EE317DDE90001224604F075FBA0F541
S1130A50C330A03800F5C333A033002DD3D1002810
S1130A60B8BF4042404506DA039BC3F80090029B9E
S1130A7080461E702F46074B09F106099945AFD1F0
S1130A8042F21073984599DC002098E77C610000DD
S1130A90A086010006600000B85F0000F0B1E9B173
S1130AA03D4B42689A421BD02DE9F0473B4B90B036
S1130AB005460E460878DA68142100230493079348
S1130AC0ADF812008DF81010089309930A9304A846
S1130AD007A9904730B110B0BDE8F08701207047F6
S1130AE008207047079F6F6204A804F05FF800288D
S1130AF0F1D1BDF822302A4A0590C3F38103D35CB7
S1130B006B70336A002B35D01A7B93F80090EB7826
S1130B1052BB62F38203EB709046FF22214B8DF8A7
S1130B200F2006937068B9F1000F2AD005F11B035A
S1130B30F27B009301212B4604A8FFF7FFFD05F18A
S1130B401803327B009304A802212B46FFF7F6FD1D
S1130B50044648B3A86805F10C01FFF705FF04A893
S1130B6004F058F82046B6E743F00403EB700DF1A7
S1130B701408D2E7FF210B4A70688DF80F109846CD
S1130B8006920DF10F0106AA4346FFF7FFFE044645
S1130B900028DFD18146C9E755494353F46000007A
S1130BA008600000B85F000005F11903727B009330
S1130BB004A805212B46FFF7C1FD04460028C9D12E
S1130BC005F11A03B27B009304A804212B46FFF716
S1130BD0B5FD04460028BDD13269EB787169AA607D
S1130BE0012262F30103EB70327AE960022A03D135
S1130BF0EB7862F30103EB70D6F810C0BCF1000F80
S1130C003DD0DCF804400FCC0DF12C0AD646AEE8FA
S1130C100F000CAA246800920DF13203019362467E
S1130C20CEF80040304606F108010223FFF758FED3
S1130C30044600288ED1326969785368E8781B68C5
S1130C40002900F08F8100F003000228696A00F097
S1130C50878111315960916893F802E0DC7810685B
S1130C600A68022161F3830E6FF38304DC7051463A
S1130C7083F802E09047044600287FF46BAFD6F86F
S1130C8014C0BCF1000F3ED0DCF804400FCC0DF1D1
S1130C902C0AD646AEE80F000CAA246800920DF187
S1130CA0320301936246CEF80040304606F1080153
S1130CB00523FFF715FE044600287FF44BAF726945
S1130CC069785368E8781B68002900F0628100F0B5
S1130CD003000228696A00F061810F31996091680C
S1130CE093F802E0DC7810680A68022161F3830457
S1130CF06FF3830EDC70514683F802E0904704469C
S1130D0000287FF427AF04A803F0EEFE00233B7015
S1130D10BB703A7902B13B71F223FF22BB714FF4ED
S1130D20784A7A7000234FF0400E03240620BA74E8
S1130D300699FB719DF80FC03B727B72BB72FB720C
S1130D403B737B733B73A7F814A07B8387F813E092
S1130D503C773877B9F1000F40F0CF80BB7823F0AF
S1130D600303BB7087F801C0FB798A7823F0400342
S1130D7002F0010243EA8213FB71FB79CA7823F083
S1130D80100302F0010243EA0213FB710A79FB79B2
S1130D9002F0010223F0080343EAC203FB714B791A
S1130DA0397803EA040221F0030313433B70B8F1DA
S1130DB0000F0AD0D8F80030FF2B00F2C380FA7974
S1130DC0DBB242F00402FA71BB746A786B6A2AB32C
S1130DD09A8A42F001029A829A8A42F002029A8224
S1130DE03269002A00F0C5809A8A22F470629A82DD
S1130DF069789A8A013901F00F01C2F30B0242EAC1
S1130E0001329A829A8A42F004029A829A8A52079A
S1130E10FCD49A8A22F0F0029A826B6A1A78717A68
S1130E2042EA0112D2B21A70327A012A00F08180A9
S1130E30022A00F08C80B17A1A7801F0010122F0C4
S1130E40080242EAC1021A70F27A1AB15A7B42F0DD
S1130E5002025A73316AD9B1DA79887802F07F02D2
S1130E6042EAC012DA71DA79C87822F0200200F07E
S1130E70010042EA40120020DA7118724A78997827
S1130E8098780A4302F0030120F003020A439A709F
S1130E9033782B70F369B2692B620023EA612B610A
S1130EA06B61AB70BB8A444C23F00803BB82BB78F4
S1130EB043F01003BB702B7EE97E58B2012203F08D
S1130EC01F0302FA03F640094BB213F1210F44F851
S1130ED0206005D001F01F015B098A4044F82320FB
S1130EE0BB78364943F04003BB706A6A937843F099
S1130EF02003937000206960EDE57A70FB7923F09C
S1130F004003FB71FB7923F00803FB713B7823F06A
S1130F1003033B70BB7823F0030343F00203B9F1EE
S1130F20020FBB707FF451AFFB7943F01003FB71E8
S1130F304BE71A7842F040021A709A7942F0100294
S1130F409A7178E7FB7923F00403FB713DE71A7883
S1130F5022F040021A709A7922F010029A716AE71C
S1130F60103177E600F003000128696AF8D10531F1
S1130F7070E66A78316A013A92B299B10879998A2D
S1130F80024002F00F0021F4706242EA00229A82C9
S1130F902EE700F003000128696A01D00E319DE6B6
S1130FA003319BE6998A02F00F0221F4706141EA51
S1130FB002229A821CE700BF00E100E05549435336
S1130FC000285DD02F4B42689A4201D00720704719
S1130FD0F0B5436A2C4E002242609A7802F00B026C
S1130FE09A70017EC57E4AB2520901F01F010124A4
S1130FF004FA01F7203269B211F1210F83B046F8E7
S1131000227006D04909203105F01F05AC4046F88E
S113101021400446407EA57E1B4E41B26AB2490976
S11310205209203100F01F0705F01F05012020326E
S113103000FA07F7A84046F8217046F822009A788B
S1131040987802F0020120F003020A439A7004F136
S11310500C0102AEA068FFF787FC0025142301955C
S113106006F8043DE5612378A5623046ADF8063004
S113107003F036FD304603F0CDFD284603B0F0BD45
S1131080012070475549435300E100E0C37842789A
S113109003F00303022B10B4036918D01978436AD0
S11310A08CB27AB11A79D209FCD0DC81C278046995
S11310B0416902F00303C91A2344416103615DF8E5
S11310C0044B70471A79D209FCD0D970EEE71C881A
S11310D0436A002AE6D11A79D209E6D11A79D209EB
S11310E0F9D0E2E72DE9F04182B004460E461546F8
S11310F0FFF7AEFB10B92369082013B102B0BDE8B5
S1131100F081676AE178BA7802F07B02BA70E2682B
S1131110266101F00308656102B39168009363617D
S11311200193D1F818C0106808F1FF336946DD4017
S1131130E047009B9D4235D86378002B34D1013DB4
S1131140C4F814800AD006EB0801E3689A681868AA
S11311505668ABB20022B0470028CFD194F91900E9
S113116003F0F8FC627E42F3C40323F0604323F0EF
S1131170030303F1604303F5614302F01F010122FD
S11311808A40C3F880211A60BB7843F0A003BB7087
S113119065785DB960690028B0D02046FFF776FF16
S11311A02846ABE70120A9E73146CEE70020A5E7B2
S11311B018B3374B42689A4201D007207047F0B504
S11311C0456AAB7813F0030385B018D1C278039352
S11311D002F0040202F0FF069AB9FF2304462D4FE1
S11311E08DF80730084602AA0DF10701334602972D
S11311F0FFF7CCFB38B105B0F0BD012070470120EA
S1131200F9E703AEE9E7AB789DF8071003F00B03A9
S1131210AB702061AB78029A23F00303AB70697062
S1131220EB79917823F0400301F0010143EA811343
S1131230EB71EB79D17823F0100301F0010143EA5B
S11312400113EB711179EB7901F0010123F008032B
S113125043EAC103EB715379297803F0030221F0C7
S1131260030313432B7046B13368FF2B0AD8EA7982
S1131270DBB242F00402EA71AB74AB7843F0500382
S1131280AB70B8E7EB7923F00403EB71F5E700BF2B
S113129055494353B85F0000F0B54178476A85B0BB
S11312A0002930D0FD8A15F01F0522D004463A46A5
S11312B0802699B1138AC3F30803E2694AB12078FE
S11312C0216A009003910293ADF804606846904748
S11312D06178013D0CD0626A0029EBD1E37803F018
S11312E00303022B0BBF138A53799BB2DBB2E4E7EF
S11312F039B13B7923F040033B713B7923F001037F
S11313003B7105B0F0BD012504463A468026D0E77E
S1131310F0B585B0EFF30380103840B203F01AFC47
S1131320EFF30383344A103B5BB2126852F8333054
S11313301C6824B1E568666A1DB163693BB105B0F8
S1131340F0BD6378002B3CD16369002B4FD194F935
S11313501A0003F0FFFBA37E28495AB252096032F7
S113136003F01F00012303FA00F041F82200B278D1
S113137002F07F0242F00402B270657EA07EE6694C
S11313806AB247B2520900F01F00203205F01F056F
S11313907F0903FA05F58340002041F8225041F803
S11313A027302061002ECAD02378226A00934FF49C
S11313B0807302900392ADF804306846B04705B0DC
S11313C0F0BDF78AC7F30427DF1B002F02DC09E016
S11313D0BD4207D063690135002BF9D02046FFF7E1
S11313E055FEF5E7337903F07F033371A5E7204613
S11313F0FFF74CFEA1E700BF9866000000E100E0A3
S113140010B584B0EFF30380103840B203F0A2FBB0
S1131410EFF303830F4A103B5BB2126852F8333088
S1131420186828B183780278012B03D0FFF734FFC2
S113143004B010BDC169002484700029F8D0006A8A
S1131440039000920294ADF804306846884704B0D3
S113145010BD00BF9866000070B584B0EFF303833D
S1131460164A103B5BB2126852F833301B68EBB17A
S1131470596A1E788A78124D02F07B028A70997E2E
S1131480DC694AB25209203201F01F01012000FA3E
S113149001F145F822104CB11B6A03930022022388
S11314A000960292ADF804306846A047EFF303803B
S11314B0103840B203F04EFB04B070BD98660000D3
S11314C000E100E070B4104C2368020A9A4216D27C
S11314D06568C0B200F11006012355F8225003FAE2
S11314E006F62E420BD069B100EB0210A36853F844
S11314F02030C3F3400300200B7070BC70470320FE
S113150070BC70471846FBE7BC02FE1F084B1A6804
S1131510000A904201D30320704731B1DA684301D5
S1131520043200209B580B8070470120704700BF95
S1131530BC02FE1F084B1A68000A904201D3032024
S1131540704739B1DA684301043200209B581B0C00
S11315500B80704701207047BC02FE1F144A1368B9
S1131560F0B4040A9C421DD25768C5B205F11006B6
S1131570012357F8244003FA06F6264212D0A1B1FB
S1131580D468000A0434400103FA05F2005992B207
S113159002EA1040904213BF002000200B70087034
S11315A0F0BC70470320F0BC70471846FBE700BF4F
S11315B0BC02FE1F0C4B10B41C68000AA04200D2EF
S11315C01AB903205DF8044B7047DB685DF8044BDF
S11315D0083303EB401022EA0103114041EA0341BE
S11315E041600020704700BFBC02FE1F134BF0B4E3
S11315F01C68020AA2420AD25F68C5B205F110064D
S1131600012457F8222004FA06F6164202D10320D8
S1131610F0BC70470129FAD800F47F400AD0AC40EE
S113162024040021DB68083303EBD0000C4344603E
S11316300020EDE7A94089B20024F3E7BC02FE1FB5
S113164040B101230421022201704370C3708270EF
S11316500020704701207047012901D903207047F9
S11316602C4BF0B51C68020AA2424ED25D68C0B28F
S113167000F11006012455F82250B4402C4244D005
S113168000EB02109C681D6954F8203000293ED0FC
S113169043F00401204E0E40EFF31087012383F33F
S11316A010881E4B1A8892B222B94FF0400EEA708D
S11316B085F803E01A88013292B21A8087F3108801
S11316C0CF0354F8202007D5154F22F480320F4061
S11316D044F8202044F8207044F82060EFF310818F
S11316E0012282F310881A880C4892B21AB1028837
S11316F0013A92B202801B889BB213B98022EB702C
S1131700EA7081F310880020F0BD0320F0BD23F0BF
S11317100401BFE7BC02FE1FD5FC011F1003FE1F1E
S1131720D5FC001F0AB9032070470B4B10B41C688A
S1131730000AA04203D303205DF8044B7047DB6822
S113174022EA0104400108330A4042EA0442C2503A
S11317505DF8044B00207047BC02FE1F0AB9032049
S113176070470D4B70B41C68000AA04202D30320DA
S113177070BC70474001DD682E582B5802EA010402
S11317803443A4B261EA02021B0C22401B041A4334
S11317902A50002070BC7047BC02FE1F2DE9F041A6
S11317A0002839D009681E4D002701EBC000B84657
S11317B04FF0010E8C88002335F81320A24218D074
S11317C00133032BF8D108318142F3D1FF43FFB237
S11317D0012003F097FA134A92F8BB3448EA03084D
S11317E008EA070782F8BB740120BDE8F04103F062
S11317F059BA0A6802F0B852B2F1807F05D00EFAE5
S113180003F647EA0602D7B2DAE70EFA03F248EA29
S113181002085FFA88F8D3E78046FF27D8E700BFBD
S11318206460000000E0014070B582B002AB0024A7
S113183003F8044D054618460E4602F0DDFF9DF8F8
S11318400430DB0702D4062002B070BD202D02D97B
S1131850032002B070BD012EFAD8084B1A69137820
S113186005D02B4303F0300320461370ECE703F05C
S1131870300323EA050520461570E5E7BC02FE1F88
S1131880002867D02DE9F84F4368002B5FD001464C
S1131890804631F8040BFFF781FFB8F80030002BC5
S11318A052D02D4CDFF8B4E0A146002201204FF0C5
S11318B0400B4FF0800AD8F80430DEF8107053F86B
S11318C03260DEF8085003EBC20399880B0AC9B2F0
S11318D001EB0313EFF3108C80F31088218889B295
S11318E011B9F97087F803B02188013189B22180D8
S11318F08CF3108816F4803F55F8231007D021F498
S1131900803126F4803C45F8231045F823C045F87F
S11319102360EFF3108180F3108823889BB22BB1EE
S1131920B9F80030013B9BB2A9F8003023889BB280
S113193013B9FB7087F803A081F310880132B8F85B
S1131940003092B29342B6D80020BDE8F88F01204F
S1131950BDE8F88F012070471003FE1FBC02FE1F74
S1131960002832D04368002B2FD0F0B587B006ACE6
S1131970002309210193164A04F8141D154ED76853
S11319800293054603930493059302A92046B8479E
S11319904FF00A0C029ABDF80C308DF804C002A96D
S11319A0F2602046059A72603360B8470122029BB8
S11319B08DF8052002A92046B360B847029B336125
S11319C02846FFF75DFF07B0F0BD0120704700BF58
S11319D0F4600000BC02FE1F2DE9F041304C226887
S11319E0050A954284B003460CD26268C6B20F461B
S11319F04FF0010806F1100152F8252008FA01F110
S1131A00114203D1032004B0BDE8F08104A902AA65
S1131A1041F80C2D4046ADF80C300297ADF800802B
S1131A2006EB0515FFF7BAFE2069A268EFF31084F0
S1131A3088F310881B490B889BB213B94026C370E6
S1131A40C6700B8801339BB20B8084F31088FC03AF
S1131A5052F8253007D523F4803327F4803442F834
S1131A60253042F8254042F82570EFF31082012317
S1131A7083F310880B880B4C9BB25BB90B889BB229
S1131A8013B98021C370C17082F31088002004B0A0
S1131A90BDE8F0812388013B9BB22380EEE700BFC1
S1131AA0BC02FE1F1003FE1F012901D90320704749
S1131AB02C4BF0B51C68020AA2424ED25D68C0B23B
S1131AC000F11006012455F82250B4402C4244D0B1
S1131AD000EB02109C681D6954F8203001293ED0A7
S1131AE023F00101204E0E40EFF31087012383F30E
S1131AF010881E4B1A8892B222B94FF0400EEA7039
S1131B0085F803E01A88013292B21A8087F31088AC
S1131B10CF0354F8202007D5154F22F480320F400C
S1131B2044F8202044F8207044F82060EFF310813A
S1131B30012282F310881A880C4892B21AB10288E2
S1131B40013A92B202801B889BB213B98022EB70D7
S1131B50EA7081F310880020F0BD0320F0BD43F04B
S1131B600101BFE7BC02FE1FD5FC011F1003FE1FCD
S1131B70D5FC001F024658B1064B07491B68002BD1
S1131B8008BF0B460020596803EB810313607047BC
S1131B9001207047D002FE1F4062000088B10A4B4A
S1131BA01B6863B15A6800F1100103EB820353F818
S1131BB0042F40F8042B8842F9D1002070471C20E0
S1131BC070470120704700BFD002FE1F70B36AB394
S1131BD0174BF0B51E681EB3164B07781B6800241C
S1131BE004E00134B44203F1080319D09D79BD42E5
S1131BF0F7D193F805E04588B5EB9E0FF1D1DD7977
S1131C0090F801E005F00F0CF445EAD1B1EB151F93
S1131C10E7D19B881470C3F3090353800020F0BDFF
S1131C20DF21FF23117053800B20F0BD012070478A
S1131C305C03FE1F9866000020B1034B1B68036021
S1131C4000207047012070470C61000070B42A4CDA
S1131C50216851B1234604F57F70002201E053F856
S1131C60041F83420A44FAD11AB100BE1D2070BC7D
S1131C707047224D22482A600368190CB1F5807F11
S1131C8002D0002070BC7047196801390331F8D8BC
S1131C901C495E6A8E42F4D12B600168636848680F
S1131CA004EB830301EB800101F1230023330121C1
S1131CB04FF47E4503E0013201310138013B25FA3E
S1131CC002F4E40707D5072A10D0082A07D01E78A3
S1131CD00478A642C9D11029EDD10020D2E70478B6
S1131CE0372CE8D01E78A642E5D0BEE706781C78EB
S1131CF0A642E0D2B9E700BF40620000D002FE1F56
S1131D009CB17F405237465300285ED000295CD0F6
S1131D108B4B2DE9F0439A6890F800C003EB8202E4
S1131D209478A44537D24FEA1C1802EB88060CF0CD
S1131D300F073589D2F804E025FA07F919F0010FE5
S1131D4029D0072FB67A09D902EB88080CF00707C7
S1131D5098F80BC00CF00F0C66442D0ADFF8E481F0
S1131D60DFF8E4C118F80780754F08EA050524096F
S1131D701CF80550023402EB8402AC1902EB440552
S1131D8032F814206C78C2F30902250603EB8203AF
S1131D9005D4002B4BD14FF4AF60BDE8F08317F8A6
S1131DA0222045785208FDB14FF0020E0126042787
S1131DB01C78E40705F1FF3552D5052A00F2BE80F0
S1131DC0DFE802F0332D211C1A05012070479A78B0
S1131DD01EFB0264033204EB9202920013441A784D
S1131DE054082246002DE3D1042A00F2A480DFE83F
S1131DF002F0636363503B000822EFE79A7817FB15
S1131E0002629200EAE793F804C09C7814FB0CF297
S1131E10D41C0CF1030204EB92029200DEE71A795F
S1131E20033222F003020C32D8E70C22D6E74478BE
S1131E30B4B9DC78C4F303144C72DC780125C4F320
S1131E4003048C728D804088002843D137F8222007
S1131E500EEB02220A609B78CB800872C86015E002
S1131E6040F27950BDE8F083DA78C2F303124A7283
S1131E70DA78C2F303028A725878C88000228A8012
S1131E800A72CA605B680B608307E9D50020BDE86D
S1131E90F083DA78C2F303124A72DA78C2F30302E7
S1131EA08A725A78CA809A788A800433042000227D
S1131EB0CB6008720A60E9E7DC78C4F303144C725F
S1131EC0DC78C4F303048C721D79ACB28C80408836
S1131ED0844203D840F27A50BDE8F083DC889E68DF
S1131EE0012A04FB00640C601CD0022A0AD09C78EE
S1131EF05B78002243EA0424CC800A72CA60002C76
S1131F00E8D0C3E71C18EA1C247BCC809D780D72B2
S1131F10920805FB002003EB80030C33CB60002CFC
S1131F20D8D0B3E7034400221C7BCC800A72CA6079
S1131F30002CCFD0AAE76420BDE8F08300224DE74F
S1131F40406200006C60000074600000034B0430C9
S1131F501B6823F820100020704700BF1403FE1FE5
S1131F60034B021D1B68002023F82200704700BFAA
S1131F701403FE1F034B1A68137863F07F03137076
S1131F80002070471403FE1F034B1A68137803F0F4
S1131F907F031370002070471403FE1F20B1034B0E
S1131FA01B68036000207047012070472C6100000B
S1131FB060B1012808D1094B1B680020402141224F
S1131FC0187119711A71704701207047034B1B680F
S1131FD040214122987099709A7070471403FE1F33
S1131FE0002836D070B51C4986B000230B2201931B
S1131FF002930393049305930546CB688DF804205C
S113200001A802A99847044608B106B070BD134E52
S1132010029B336001A802F067FD6B6873B13068FE
S11320202346AA6812F8231002EB83020431528873
S113203020F821206A6801339A42F2D828780028CF
S1132040E3D032681378002063F07F03137006B086
S113205070BD0120704700BFF46000001403FE1F30
S1132060062070470620704790B10A4B02689A42D6
S113207001D00720704790F90630074AC033116831
S113208051F8232022F0807241F823200020704769
S113209001207047004354441803FE1F20B1034B32
S11320A01B680360002070470120704758610000DE
S11320B010B31A4B02689A4201D007207047D9B175
S11320C0174B1B68DB8900229BB28A7190F90620AA
S11320D018041AD4134B53F82230D87800F0C000F7
S11320E080280BD0DB8940289BB28B8013D038B971
S11320F04FF480330B607047012070479B898B80BD
S11321004FF480730B60002070475BB2934204BFAE
S113211001238B71DEE7DBB28B80F1E7004354448B
S11321201C03FE1F0000FE1F0346F0B1114A0168A4
S1132130914201D00720704790F9062012F1210F37
S113214015D030B40C490D4D0C68C032002154F840
S1132150220020F0807044F8220093F906200846FB
S113216045F82210196030BC7047012070470B20DD
S1132170704700BF004354441803FE1F0000FE1FB5
S113218078B31D4B02689A4201D00720704790F93A
S1132190063013F1210F26D0184A52F823209168F3
S11321A0F9B15168E9B1D17801F0300110291CD09E
S11321B0202910D0124AC033126852F8231021F497
S11321C0803142F8231052F8231041F0807142F814
S11321D02310002070479168890702D15268920742
S11321E0E8D0012070470B2070479168C907F8D4E4
S11321F05268D007DED5F4E7004354440000FE1FC4
S11322001803FE1F2DE9F04182B001919DF8207062
S11322100092BDF8245070B190F90640294A52F852
S11322202410C97801F0C001802903D0062002B02F
S1132230BDE8F0811DB9012002B0BDE8F081002B9A
S1132240F9D0214906688E4201D00720EFE71F4EDE
S11322501F49D6F800E0D1F80080C0345EF824109D
S113226021F080714EF8241098F8001021F010012C
S113227088F80010019990F9064019B152F82460C9
S113228001997160009919B152F824600099B16004
S113229052F82410CC788D81CB818B7BCB7367F380
S11322A00514CC70FFF76CFF98F80030002843F059
S11322B0100314BF1320002088F8003002B0BDE8DA
S11322C0F08100BF0000FE1F004354441803FE1FAA
S11322D01C03FE1F00283AD0002938D00B68002BBD
S11322E035D0DA7812F0C00F04D0DB899BB2B3F595
S11322F0807F2CD8514B02689A422AD02DE9F047AE
S11323004F4E337886B08046894623B34D4B1D68C3
S1132310B9F80460002302E00133702B35D003F1D7
S1132320C004DFB255F82420C2F308029642F3D168
S1132330454955F8242051F82300C2F30802A8F8AF
S11323400420002849D0082006B0BDE8F087012009
S11323507047082070473D4901930822CC680293D6
S11323600393049305938DF8042001A80DEB020157
S1132370A0470028E8D1364D029B2B6001A802F04B
S113238015FC074658B10A20DEE7D5F87C320B204D
S1132390C3F30803A8F8043006B0BDE8F087DFF8FB
S11323A0A8A001A802F0A0FB39464FF4E072504601
S11323B003F09AF92B68C3F804A01A7B062542F0AF
S11323C001021A738DF8045001A802A9A0471D4AFE
S11323D0029D1560012333709AE7D9F8002000E0CC
S11323E01032D07810F0C00F1CBF907BD07390785F
S11323F010F0C00FF4D1164A104D1468227822F060
S11324001002227099F80600D9F8002041F8232020
S113241088F80670C8F8005020B9237843F01003F8
S1132420237091E74046FFF7ABFE2378002843F082
S1132430100314BF13200020237085E70043544485
S11324402003FE1F1803FE1F0000FE1FF46000009F
S11324501C03FE1FF0B583B001910092002851D0F7
S113246090F906402A4951F82450EA7812F0C00243
S113247006D1284A056895420CD0072003B0F0BD68
S113248013B9132003B0F0BD224E0768B742F4D14C
S1132490802A33D0204D214A2E681568C03456F85E
S11324A0242022F0807246F824202A7822F0100298
S11324B02A70019A4AB390F90620019E51F82240ED
S11324C06660009C1CB151F82240009EA66051F841
S11324D02210CA7802F0C002802A0DD002B9CB8142
S11324E0FFF74EFE2B78002843F0100314BF13208F
S11324F000202B7003B0F0BD8B81F1E7EA8992B222
S1132500002AC7D1012003B0F0BD90F90620D8E716
S11325100000FE1F004354441803FE1F1C03FE1F4B
S1132520094A0A4B12680A48916910B4D4691960BF
S11325304FF400420021DC60586059619A601A61CE
S11325405DF8044B704700BFEC02FE1FD402FE1F6F
S113255000127A00374B1B6893F8283013F03002CE
S11325603DD0102A0DD0202A3AD0DFED337A334AF9
S1132570F0EE676A67EEA67AFCEEE77AC2ED057ABA
S11325807047028D2E4902F0030231F8121000291F
S11325904CD05B0610B44AD5038D13F0100F0CBF5A
S11325A003240024254A038D52F824005DF8044BCB
S11325B007EE900AB8EE677A07EE901AB8EE676AEB
S11325C0C3F30523C7EE067A013306EE903AFAEE1A
S11325D0EF6A67EEA67AFCEEE77AC2ED057A7047F9
S11325E090F82B30174A9B0932F813100029F6D0C3
S11325F0124A90F82B30D2ED037A03F01F03B8EEA1
S1132600677A06EE903A07EE901AF8EE666AB8EE2C
S1132610676AF7EE007A76EEA76AC7EE067A67EE87
S1132620A67AFCEEE77AC2ED057A70477047032478
S1132630B8E700BFEC02FE1F00000000D402FE1F3A
S1132640646100005C610000F8B50D4B1B68064630
S113265093F8205093F8217000200C4602F052FBAE
S113266096F81324E9B2BC400C4022EA010344EA80
S1132670030186F813140020BDE8F84002F012BBF1
S1132680EC02FE1FF8B50D4B1B68064693F822506A
S113269093F8237000200C4602F034FB96F8812452
S11326A0E9B2BC400C4022EA010344EA030186F883
S11326B081140020BDE8F84002F0F4BAEC02FE1FD9
S11326C038B505460C46002002F01CFB052C0AD840
S11326D0DFE804F019242F033A0E95F8323023F082
S11326E0010385F832300020BDE8384002F0DABA40
S11326F095F82A3023F0010385F82A300020BDE83C
S1132700384002F0CFBA95F8363023F0010385F84B
S113271036300020BDE8384002F0C4BA95F83830AD
S113272023F0010385F838300020BDE8384002F07A
S1132730B9BA95F8903423F0010385F89034002059
S1132740BDE8384002F0AEBA95F8803423F00103B6
S113275085F880340020BDE8384002F0A3BA00BFF9
S113276038B505460C46002002F0CCFA052C0AD8F0
S1132770DFE804F019242F033A0E95F8323043F0C1
S1132780010385F832300020BDE8384002F08ABAEF
S113279095F82A3043F0010385F82A300020BDE87B
S11327A0384002F07FBA95F8363043F0010385F8DB
S11327B036300020BDE8384002F074BA95F838305D
S11327C043F0010385F838300020BDE8384002F0BA
S11327D069BA95F8903443F0010385F890340020E9
S11327E0BDE8384002F05EBA95F8803443F0010346
S11327F085F880340020BDE8384002F053BA00BFA9
S113280003290ED0052907D009B10020704790F89C
S11328103C0000F00100704790F83C00C0F3401009
S1132820704790F83C00C0F3C000704705292ED8CB
S1132830DFE801F00A11181F260390F82A0000F0BF
S1132840010080F00100704790F8360000F00100AC
S113285080F00100704790F8380000F0010080F02B
S11328600100704790F8900400F0010080F001002E
S1132870704790F8320000F0010080F001007047CA
S113288090F8800400F0010080F0010070470020FF
S1132890704700BF036A90F82630704738B5054684
S11328A000200C4602F02EFA95F8133404F00101CE
S11328B023F0400343EA811185F813140020BDE896
S11328C0384002F0EFB900BF38B505460020144681
S11328D002F018FA95F8A22004F00F0422F00F0277
S11328E0144385F8A2400020BDE8384002F0DAB96C
S11328F0084B1B6893F8283013F0300F04D10428D8
S11329008CBF00200120704705288CBF00200120C7
S1132910704700BFEC02FE1F06288CBF0020012078
S1132920704700BF90F8260000F00700704700BF12
S113293038B5054600200C4602F0E4F995F8261057
S113294004F0070421F007010C4385F82640002019
S1132950BDE8384002F0A6B9074B1B6893F828304D
S11329605B0601D403207047038D13F0100F0CBFD6
S113297003200020704700BFEC02FE1F38B5044658
S113298000200D4602F0BEF9238D032D0CBF23F069
S1132990100343F0100323850020BDE8384002F003
S11329A081B900BF38B5224C2DED028B236893F812
S11329B0283003F03003102B0546B0EE408A1CD0BB
S11329C0202B02D0BDEC028B38BD002002F09AF916
S11329D0FCEEC87A95F82B1017EE903A013B03F001
S11329E01F0221F01F03134385F82B30BDEC028B2B
S11329F00020BDE8384002F055B9002002F082F909
S1132A0078EE087A2A8DFCEEE77A22F47C5217EEEF
S1132A10903A013B03F03F0342EA03232B85002055
S1132A2002F040F9236893F8283003F03003C7E735
S1132A30EC02FE1F70B51E4C236893F8283003F097
S1132A403003102B82B0054619D0202B01D002B0E0
S1132A5070BD184B002033F8114002F053F995F87B
S1132A602B3004F0030403F03F0343EA84130020F3
S1132A7085F82B3002B0BDE8704002F013B90E4B5C
S1132A800191002033F8116002F03CF92B8D06F01F
S1132A90030623F003031E432E85002002F002F9EF
S1132AA02368019993F8283003F03003CDE700BF81
S1132AB0EC02FE1F746100006C61000038B51A4B13
S1132AC01A6892F8293092F82A200546180748BF58
S1132AD008784FF0000448BF60F30E34D80644BFB2
S1132AE0487860F30A24980644BF887860F3061493
S1132AF0580644BFC87860F30204D20744BF0A7979
S1132B0062F312441B0644BF4B7963F31E748B7942
S1132B10002063F31A6402F0F5F82C620020BDE88B
S1132B20384002F0BFB800BFEC02FE1F036AC3F3D3
S1132B3002330B70036AC3F302234B70036AC3F3BB
S1132B4002138B70036A03F00703CB70036AC3F3A9
S1132B5002430B71036AC3F302734B71036AC3F339
S1132B6002638B71704700BF144B42781B6893F863
S1132B70241091421ED393F8262090ED017A07EE9B
S1132B80902AF8EE677AF4EEC77AF1EE10FA11D4CF
S1132B9093F8253007EE903AF8EE677AB4EEE77AC8
S1132BA0F1EE10FA06D40078032805D0B0FA80F0CC
S1132BB0400970470020704701207047EC02FE1F57
S1132BC0062921D8DFE801F0080C1014181C0400B1
S1132BD0006AC0F302607047006AC0F302307047B5
S1132BE0006AC0F302207047006AC0F30210704705
S1132BF0006A00F007007047006AC0F302407047A3
S1132C00006AC0F3027070470020704710B5044694
S1132C10FFF7D6FF94F82630034A03F0070352F86F
S1132C20233023FA00F010BDD402FE1F024B53F8E8
S1132C302000C840704700BFD402FE1F30B50446D0
S1132C4083B001200D4602F05DF802A8002300F8CD
S1132C50013D01F0ABFC94F8AA30D806FBD494F8FB
S1132C60A030D906F7D494F8AA3023F0010384F8ED
S1132C70AA3094F8AA30DA06FBD494F8A030DB0624
S1132C80F7D4042D2BD094F8A02005F0030322F0F0
S1132C900302134384F8A03094F8AA30D806FBD476
S1132CA094F8A030D906F7D494F8AA30042D0CBFB8
S1132CB043F0010323F0010384F8AA3094F8AA3006
S1132CC0DA06FBD494F8A030DB06F7D49DF80700AD
S1132CD001F080FC012001F0E5FF03B030BD94F861
S1132CE0A03043F0030384F8A030D5E790F8AA306D
S1132CF0DB075ABF90F8A00000F0030004207047DF
S1132D0010B50446002001F0FDFF94F8403063F054
S1132D107F0384F8403094F8403043F0010384F892
S1132D2040300020BDE8104001F0BCBF10B504469F
S1132D30002001F0E7FF94F8403023F0010384F809
S1132D40403094F8403003F07F0384F84030002092
S1132D50BDE8104001F0A6BF90F84000C0097047DC
S1132D6090F8410000F00100704700BF38B590F8BA
S1132D70413013F0010401D1002038BD0546002084
S1132D8001F0C0FF95F8413023F0010385F841308C
S1132D90002001F087FF204638BD00BF38B5054646
S1132DA000200C4601F0AEFF95F8301004F0010449
S1132DB021F001010C4385F830400020BDE8384083
S1132DC001F070BF10B50446002001F09BFF94F899
S1132DD0523043F0010384F852300020BDE8104023
S1132DE001F060BF10B50446002001F08BFF94F899
S1132DF0523023F0010384F852300020BDE8104023
S1132E0001F050BF70B5044600200D46164601F08F
S1132E1079FF94F83E3003F07F0384F83E3094F851
S1132E203E3006F0070223F0700343EA021284F8EE
S1132E303E2094F83E1005F0070521F007010D43EC
S1132E4084F83E500020BDE8704001F02BBF00BF65
S1132E5010B50446002001F055FF94F83E3063F0AD
S1132E607F0384F83E300020BDE8104001F01ABF13
S1132E7010B50446002001F045FF94F83E3003F0FD
S1132E807F0384F83E300020BDE8104001F00ABF03
S1132E9010B50446002001F035FF94F8533043F098
S1132EA0010384F853300020BDE8104001F0FABE5D
S1132EB010B50446002001F025FF94F8533023F0A8
S1132EC0010384F853300020BDE8104001F0EABE4D
S1132ED038B5054600200C4601F014FF95F824305F
S1132EE004F0070123F0700343EA011185F824106C
S1132EF00020BDE8384001F0D5BE00BF70B40F4BD0
S1132F000F4C1D680021196094F823200138B0F19A
S1132F10807FD2B20DD2F026072502F0F00258606D
S1132F2084F8236099601D6084F82320012070BC1C
S1132F3070471D60084670BC704700BF10E000E099
S1132F4000ED00E090F8503001F00F0123F00F0382
S1132F50194380F85010704790F8500000F00F00AB
S1132F60704700BF90F8503063F07F0380F8503012
S1132F70704700BF90F8503003F07F0380F8503062
S1132F80704700BF90F85000C009704738B5054637
S1132F9000200C4601F0B6FE95F8A51004F00704D5
S1132FA021F007010C4385F8A5400020BDE8384016
S1132FB001F078BE024B1B6803600020704700BF1D
S1132FC0E461000030B52A4C87B0204601F01AFCB9
S1132FD006A8284B002503220095DB6800F8182D6D
S1132FE002A9029503950495059598470298606097
S1132FF04FF6FF7329460193FFF718FC28B910E038
S1133000019B43B1019B013B019360680021FFF7E1
S1133010F7FB0028F4D0019B1BB94FF4CD7007B027
S113302030BD60680621FFF7B1FF4FF6FF730193CF
S1133030FFF776FA60680421FFF792FB04E0019B36
S113304043B1019B013B019360680421FFF7EEFB50
S11330500028F4D1019B002BDFD0606804210522F5
S1133060FFF718FC60680021FFF70CFB0020D6E78F
S1133070EC02FE1FF460000070B169B170B5074E38
S1133080044670680D46FFF74DFC294620707068B1
S1133090FFF74CFD002070BD01207047EC02FE1FBD
S11330A070B582B000294CD00546002846D0334C78
S11330B06068FFF71BFE042806463FD06068694637
S11330C0FFF734FD23689A680AB1032E4AD0DA6800
S11330D052B3022E28D193F829205969160703D533
S11330E09DF8000088423AD3D00603D59DF801002C
S11330F0884234D3960603D59DF8020088422ED325
S1133100500628D4120603D59DF805208A4226D3FA
S113311093F82A30DB0703D59DF804308B421ED385
S11331209DF806308B421AD32946012001F07CFB1E
S11331306068FFF7E5FD002002B070BD012002B019
S113314070BD0E4D6868FFF70BFE044680B14FF466
S1133150CB7002B070BD9DF803008842D2D2052026
S113316002B070BD93F8292019691007B8D4BBE7E1
S11331706868FFF7DBFD2046E1E700BFEC02FE1FB5
S113318038B5124C6068FFF7EBFD78B16068FFF763
S1133190C9FB236893F8283013F0300F054603D099
S11331A05B0608D405280DD0032D0BD06068FFF70B
S11331B0DDFD002038BD6068FFF7CEFB052DF3D19F
S11331C00328F3D140F2971038BD00BFEC02FE1F74
S11331D008B5034B01465868FFF7E0FD002008BD21
S11331E0EC02FE1F08B5034B5868FFF7EBFD002007
S11331F008BD00BFEC02FE1F08B5034B5868FFF77B
S1133200F1FD002008BD00BFEC02FE1F08B5044B11
S11332100A4601465868FFF7F5FD002008BD00BFC7
S1133220EC02FE1F08B5034B5868FFF711FE00209F
S113323008BD00BFEC02FE1F08B5034B5868FFF73A
S113324017FE002008BD00BFEC02FE1F38B504467F
S1133250FFF74EFB08B9032038BD631E012B11D9BB
S1133260042C0FD02CB1032C03D0052C01D000204A
S113327038BD114D21466868FFF7D8FA78B94FF484
S1133280C87038BD0C4B21465868FFF7CFFA40F29E
S11332909113002814BF18464FF4C87038BD6868ED
S11332A02146FFF7ADFA40F2931300280CBF1846ED
S11332B04FF4C97038BD00BFEC02FE1F70B506465E
S11332C04FF6FE7440F2931501E0013C0CD03046F9
S11332D0FFF7BCFFA842F8D038B16FF4C873C31825
S11332E0022B38BF002070BD284670BD70B582B077
S11332F00D460446FFF7FCFA10B9032002B070BD76
S11333005C4E052C2146706815D0FFF78FFA18B172
S113331040F2911002B070BD012C4ED9032C23D081
S1133320631E012B65D9042C2BD0002C67D0032CF1
S11333301FD00020E2E7FFF779FA002844D1002DDE
S113334039D07068FFF7EEFA0528E1D02846FFF778
S11333500BFC0028D1D070682978FFF767FA0028A1
S113336054D14FF4CA70C9E77068FFF7BFFC042852
S113337028D070682146FFF743FA58B340F29310FF
S1133380BCE721467068FFF79BF94FF6FF73019382
S113339004E0019B43B1019B013B0193706804214C
S11333A0FFF744FA0028F4D0019B002B0CBF4FF424
S11333B0CD700020A2E70120A0E77068FFF796FC1B
S11333C00428ADD1052099E77068FFF7C3F840F2EF
S11333D0911093E73368706893F82710FFF734F976
S11333E070680021FFF75AFA706803210922FFF779
S11333F06BFA70682146FFF763F900207EE7706876
S11334002146FFF7FDF90028B8D1F2E7214670689C
S1133410FFF7F6F90028B1D1336893F828305B063A
S113342003D570682978FFF7A9FA69787068114C98
S1133430FFF700FB95ED010A7068FFF7B3FA7068B7
S1133440FFF788F8336893F82810052001F00F017E
S1133450FFF7ECFB33685B68984288BF0021606823
S113346098BF0121FFF7EAFB70680521FFF728F9EF
S11334705FE700BFEC02FE1F70B582B00446FFF7A1
S113348037FA10B9032002B070BD2C4D6868FFF7FD
S113349049FA84422BD0052824D0012C2AD068680C
S11334A0264E2146FFF7C2F9D0B1022C14D0042CC9
S11334B029D01CB1032C01D0052C11D168681F4DF3
S11334C02146FFF79DF938B940F29310DBE77068A5
S11334D02146FFF7ABF918B168682146FFF740F9B8
S11334E00020D0E76868FFF737FAA042D5D140F250
S11334F09110C8E76868114EFFF72EFC0028E6D04B
S113350040F29510BFE770682146FFF729F94FF69E
S1133510FF73019304E0019B43B1019B013B0193C1
S113352068680421FFF782F90028F4D1019B002B7D
S11335300CBF4FF4CD700020A5E700BFEC02FE1FC6
S113354001280FD0022801D00020704708B5084692
S11335500021FFF7CBFE40B140F29113984208BF1F
S1133560002008BD0846FFF787BF002008BD00BF44
S1133570F0B587B00C460546FFF7BAF910B9032039
S113358007B0F0BD002C72D0654EA179326892F874
S113359029301F0764D4D80602D560788842EED358
S11335A023F07F0303F0FF0013B163798B42E6D36A
S11335B092F82A30DF0702D523798B42DFD3042D1A
S11335C052D0002328468DF808308DF81430FFF7C8
S11335D02DFB062103907068514FFFF717FB0490F1
S11335E002A801F073F80028CAD17868FFF79AF9A5
S11335F0854205D0002D3CD0032D3AD0052D38D07E
S11336007068474F0021FFF719FB70686946FFF7A0
S11336108DFA9DF80620A3799A423ED22146786815
S1133620FFF74CFA78682946FFF782F901F03EF873
S11336303C4B042D186039D0022D47D0012D4ED0BB
S1133640032D51D0052D62D070680621FFF7DEFAF4
S11336500123049002A88DF8083001F037F88FE7B1
S1133660207888428BD396E761B1052088E7012052
S113367086E770682946FFF7C3F80028C0D140F2F6
S113368093107DE763790BB10028EED17068FFF7E2
S113369063FB0028E9D1A17993E778682946FFF70D
S11336A047F978682146FFF709FABFE733681C49F0
S11336B093F82820120625D49A685AB95B68002B1F
S11336C0C2D070680121FFF7B9FABDE733689A6880
S11336D0002AF3D070680321FFF7B0FAB4E7336827
S11336E05B68002BB0D0ECE733685A68904201D98C
S11336F0002AA9D19B6898420ED9002BA4D0002A95
S1133700E8D0DEE748682946FFF798FA9CE7336873
S11337105B68984298D8D4E7002B95D0DAE700BFCD
S1133720EC02FE1F7803FE1F00287DD02DE9F04730
S1133730054686B006A800232F7800F8113D04A999
S11337408DF810308DF811308DF812308DF813305B
S11337508DF814308DF815308DF81630FFF78CFC89
S113376095F815E0EE7C297DEA7DAB7D2C7E8DF805
S113377008E038468DF80A608DF809108DF80B20A2
S11337808DF80C308DF80D40FFF7B2F818B903200E
S113379006B0BDE8F0872B7806AA134413F8103C52
S11337A0012BF4D0022C41D0DFF8E480D8F80030AB
S11337B093F8283013F0300F14BF06260526002492
S11337C040F2911905F1040A052CE1B248D002AB8C
S11337D0185DFFF7B5FE08B14845D9D10134B442AC
S11337E0F2D13846FFF76AFD0028D1D105F10C016A
S11337F03846FFF7BDFE0028CAD19DF80740A7420E
S113380010D006AB234413F8100C012822D0D8F8AA
S11338100400FFF7A1F806AB0344014613F8100CAB
S1133820012810D00020B3E7012070472879FFF762
S11338305FF80028ABD02B7906AA134413F8103C88
S1133840012BB1D1A3E7052CECD18F42EAD0FFF7CD
S113385077FE9DE72146FFF773FE0028D7D097E750
S11338609DF80D30022BB2D128790021FFF73EFDDF
S113387008B148458CD12879FFF720FD514600282E
S113388086D10520FFF732FD0028A7D0A4E700BFAA
S1133890EC02FE1F51B170B500250D600C460646C2
S11338A0FFF73AF828B90323184670BD01231846D8
S11338B07047044B31465868FFF7A8F92B4620603F
S11338C0184670BDEC02FE1F38B5114D2B6893F8F5
S11338D0290010F0010000D138BD002001F012FAD7
S11338E068680C4CFFF73EFB01E06CB1013C686872
S11338F0FFF748FB0028F8D0002001F0D3F9002C92
S11339000CBF1420002038BD01F0CCF91420E3E7EB
S1133910EC02FE1FFFFF0F0038B5114D2B6893F822
S1133920290010F0010000D138BD002001F0EAF9AF
S113393068680C4CFFF71EFB01E064B1013C686849
S1133940FFF720FB0028F8D101F0ACF9002C0CBFE4
S11339501420002038BD204601F0A4F91420E3E728
S1133960EC02FE1FFFFF0F00F8B51C4D2B6893F807
S1133970293013F0010324D0194B1E5CFF2E01D112
S11339800320F8BD002001F0BDF96868154CFFF76D
S1133990F9FA0746FFF7C0FF68683146FFF7D2FA25
S11339A001E09CB1013C6868FFF7D6FA8642F8D181
S11339B04FB9002001F076F9002C0CBF1420002030
S11339C0F8BD1846F8BDFFF77FFFF2E7002FFAD1E4
S11339D0384601F067F91420F8BD00BFEC02FE1F61
S11339E0DC610000FFFF0F0008B5054B1A6892F870
S11339F02920920702D55868FFF74AFA002008BD2B
S1133A00EC02FE1F08B5054B1A6892F829209207AC
S1133A1002D55868FFF74CFA002008BDEC02FE1FDF
S1133A2008B5064B1A6892F82920520703D50146B7
S1133A305868FFF74DFA002008BD00BFEC02FE1FD6
S1133A4008B90320704738B50D46044600F02EFE31
S1133A5007EE900AF8EE676AF7EE007AC7EEA66AF8
S1133A6007EE905A07EE104AF8EE677AB8EE477AF6
S1133A7066EEA77AC7EE277AFCEEE77A17EE900A8D
S1133A80FFF73CFA00280CBF1220002038BD00BF0D
S1133A9020B1034B1B68036000207047012070476E
S1133AA01062000088B1104B426A9A4201D007208C
S1133AB0704783694BB190F82020022A07D01A88F6
S1133AC042F400721A800020704701207047188861
S1133AD0C0F3C03030B91A886FEA42426FEA5242EA
S1133AE01A807047082070474344415298B10B4BE9
S1133AF0426A9A4201D00720704783695BB190F80B
S1133B002020022A1A8814BF22F40072C2F30E0283
S1133B101A80002070470120704700BF434441527F
S1133B2070B1084B426A9A4201D0072070478369FA
S1133B3033B11B8813F4004F0CBF002008207047DA
S1133B400120704743444152D0B1CB1CDBB21E2B41
S1133B5001D903207047002930B40ADB104C0588D2
S1133B60012354F825408B40234202D1032030BC6A
S1133B7070470C4B446A9C4204D0072030BC704709
S1133B80012070473AB183693BB11031002033F80A
S1133B9011301380EBE70220E9E70120E7E700BFDB
S1133BA02403FE1F4344415230B129B1144B426AED
S1133BB09A4203D007207047012070470B78DA1C23
S1133BC0D2B2122A16D85BB2002B30B407DB0D4CEC
S1133BD00588012254F825409A4022420CD04A78A4
S1133BE0062A09D9816949B10B44002083F8E020F1
S1133BF030BC7047032070470320F9E70120F7E742
S1133C00434441522403FE1F30B129B1394B426A67
S1133C109A4203D007207047012070470379012B93
S1133C2032D0F0B5876983B0002F60D0856A002D4B
S1133C302CD14D60054602A80C46002320222E49B3
S1133C40019300F8042D2A880093ADF806200B692F
S1133C506A46022198472B78BDF80220628104331A
S1133C605B004FF0FF322372E2602B7A012B04D009
S1133C706B882382002003B0F0BD2A695178137841
S1133C8043EA0123E360F3E7032070474FF0FF3377
S1133C900122013302FA03F42C42FAD0B4F1805F1A
S1133CA01FD0B4F1005F08BF6FF00103103307EBBE
S1133CB043030B6020220126013A06FA02F42C4247
S1133CC0FAD0B4F1805F0FD0B4F1005F08BF6FF099
S1133CD00102103207EB4202D31A5B1001334B602E
S1133CE0A8E76FF00203E1E76FF00202F1E70120B9
S1133CF0C1E700BF43444152F460000030B5B0F85E
S1133D00803023F00103A0F880300388C3F34133EB
S1133D10012B038A43F47C5383B00D4603821CD0E9
S1133D2000240480448220232A88009468468DF865
S1133D300030ADF8022000F0D3FEAB6ADB000AD5F8
S1133D40EB6803B11C7002A800222223019200F840
S1133D50043D00F0C5FE03B030BD038A43F03F03C9
S1133D600382DDE700285CD02F4B426A9A4201D0DF
S1133D70072070478369002B53D030B590F82C206E
S1133D80044650B2002510F1210F83B0656217D0AC
S1133D9043099B0003F1604303F56143012102F0F1
S1133DA01F0201FA02F2C3F88020C3F8802100F058
S1133DB0D1FE1E4B94F92C201B6853F832301D6041
S1133DC094F82D2050B210F1210F18D043099B0014
S1133DD003F1604303F56143012102F01F0201FA7C
S1133DE002F2C3F88020C3F8802100F0B3FE0F4B29
S1133DF094F92D201B6853F8323000221A60A06910
S1133E002146FFF77BFF02A800252023019500F837
S1133E10043D2388ADF8063000F0FCFE284603B0CC
S1133E2030BD0120704700BF4344415298660000F2
S1133E3030B129B1A94B426A9A4203D00720704796
S1133E4001207047F0B5866989B04EB30D46A44A87
S1133E5001882B6852F8212004461BB90320A36271
S1133E6009B0F0BD42F04052D2431A42F6D1318833
S1133E70C1F34131012915D06A68002AEED100232B
S1133E8004A804930593069300F0A6FC9DF8102063
S1133E9093070ED46B6813F0405F0AD02B68DDE7FC
S1133EA00120DDE769680029D8D01A430A42D5D138
S1133EB0E5E72B6813F0405109D030880706CDD4CC
S1133EC0500700F15A8196F87A20002AC6D1327B35
S1133ED0520700F04D816A68E9681A4331EA020228
S1133EE0BCD10029BAD02A7C002A40F054819BB26C
S1133EF0B380AB88B382AB8933816B88F380EB8862
S1133F00F382EB8973812B6813F0405F03D16B68F4
S1133F1013F0405F64D0002304A804930593069330
S1133F20039300F059FC6F4B9DF818009B6903A99B
S1133F309847039B6C4A934202D803202B688EE770
S1133F400028FAD16949059A694FA1FB03139B0C18
S1133F5002FB03F3A7FB0337BF09FB1FF82BECD8C5
S1133F602B68DA0002D46A68D2001CD5FBB286F84A
S1133F70DE30E379012B00F0DD802B6813F0805FE5
S1133F80738A00F0A38043F480737382738A23F4EA
S1133F9080637382EB68728AC3F3007322F00102B8
S1133FA0134373822B68980002D46B68990017D569
S1133FB0FFB286F8DF702B6813F0005F738A7DD040
S1133FC043F400737382738A23F400637382EA6890
S1133FD0738AC2F3407223F0020343EA42037382FA
S1133FE02B7C6A7C03F0030342EA4323A6F8663081
S1133FF02B8948F2010293422CD0A6F88030227912
S1134000A369022A1ED01F88C7F34137012F2AD083
S113401094F92C0010F1210F14D000F09BFD94F8BA
S11340202C2042F3C40323F0604323F0030303F181
S1134030604303F5614302F01F0101228A40C3F883
S113404080211A602A8948F201039A4206D02B681B
S1134050002004E72279A369022AD4D148F201039B
S1134060A6F88030F3E7298948F20102914241D051
S113407094F92D0010F1210F15D0019300F06AFD81
S113408094F82D10019B41F3C40222F0604222F007
S1134090030202F1604202F5614201F01F018F4008
S11340A0C2F8807117601A8842F040021A801A8A96
S11340B022F03F0242F00A021A82A9E723F40073B5
S11340C07382738A43F40063738280E723F48073FA
S11340D07382738A43F4806373825BE7434441527F
S11340E02403FE1F7C6100003F420F0083DE1B435C
S11340F0D34D62101A8A42F03F021A8294F82D10AE
S113410048B210F1210F10D04209920002F160422E
S113411002F5614201F01F018F40C2F88070C2F8BD
S11341208071019300F016FD019B1A8822F0400271
S11341301A806DE7344800232222039304930593E5
S11341400693079304A9C3688DF80C2003A8984725
S113415000287FF4F3AE03A800F0C6FCE3681A78E5
S113416062F07F021A701A7842F010021A7004E7A3
S1134170EA68002A7FF472AEB5E6B1F1405F3FF41D
S11341806DAE23F07042002A7FF468AE2279002AD3
S11341907FF464AE9BE600210C2204A801F0A4FA8B
S11341A004A800F019FB9DF81030DB077FF576AE0C
S11341B02A7C072A3FF672AE6B7C032B7FF66EAE29
S11341C037882B686968C7F34137012F02EA030077
S11341D001EA02010DD082427FF440AE3288170614
S11341E00DD400293FF483AE2A89002A7FF436AE29
S11341F07DE68242F2D08A427FF430AEEEE70028B8
S11342007FF42CAEEDE700BFF460000088B381B307
S11342108B888A78C3F30E036BB9F0B58B79032BC3
S11342208DB00AD903F0FD04812C06D0052B04D0EF
S113423003200DB0F0BD03207047CC7914F0DF0FDC
S1134240F6D191F808E0BEF1020FF1D8022AEFD8B6
S1134250CC780CB1052BEBD0CB680BB1022AE7D09C
S1134260012A00F02981B74C456AA54203D10820F0
S1134270DFE7012070470646B34F08884FF0200C53
S11342800C460969F36100230393089309930A9385
S11342900B933080FB68ADF80E007161327186F8C3
S11342A020E08DF80CC003A80DEB0C010193984796
S11342B00028BED1BDF82620089BB361C2F3820357
S11342C05B00C2F3401208337371B2719F492288B4
S11342D051F8220048B90B9D688841F82200B5F8CE
S11342E006E040EA0E4041F822000C2B00F0EB807F
S11342F00E2B00F0ED8003A800F058FC002898D1A4
S1134300089008AA3F6903A80221B847E3689DF80A
S1134310202086F82C20002B00F02F8153B213F1BB
S1134320210F00F0E6808A49A07A0D68002BC0F2C4
S11343302A8103F1604E02010EF5614ED2B28EF86D
S1134340002396F82C2055F833E050B243099B0023
S113435003F1604302F01F0103F5614301228A4027
S1134360CEF80060C3F88020C3F8802100F0F2FB8F
S113437003A8032108AAB847A3789DF8200086F86B
S11343802D00012B00F0AC8043B213F1210F23D098
S11343906F49E27A0968002BC0F2FD8003F16040A6
S11343A0120100F56140D2B280F8002396F82D2066
S11343B051F8337050B243099B0003F1604302F09B
S11343C01F0103F5614301228A403E60C3F8802047
S11343D0C3F8802100F0BEFB0027F7713772376104
S11343E0F76005A805970697079700F0F5F99DF87B
S11343F01430049722228DF81020DA067ED419078F
S113440000F1A880BDF816307380B0693146FFF71B
S113441075FCB56923880027202208A808978DF821
S11344202020ADF8223000F05FFB2F806F822B88B4
S1134430A27823F4C04302F0030243EA42332B8000
S11344402B8823F080032B80237A012B68D03BB97F
S11344502B8843F480732B802B8A23F47C532B8288
S1134460EB89E27823F0060302F0030243EA4203F5
S1134470EB81EB89A288C3F30E03A2F50042B2FAE2
S113448082F2520943EAC233EB81E279EB89A2F169
S1134490200223F02003B2FA82F2520943EA4213C3
S11344A0EB81A3792B73B379012B40D00023254AE8
S11344B0B36218467262BCE60D8940F20114A5424B
S11344C07FF4B6AECFE6E378022B3FF6B1AE12E747
S11344D0E378032B3FF40FAF002B7FF4A9AE0AE778
S11344E0E368002B3FF450AF43B213F1210F7FF484
S11344F04FAF03A800F08EFB0B209AE608970997AC
S11345000A970B9704A808A9019B984700287FF4F1
S11345107CAF0121089A9DF81430F171F2606EE7C6
S11345202B8A23F47C5343F410632B8298E7B369FA
S11345300022A3F8B021B36949F69912A3F8A02187
S1134540B4E700BF43444152F46000002403FE1F5B
S11345509866000000230127089309930A930B939C
S11345608DF8117004A808A9019B984700287FF4CE
S11345704CAF089B3772336144E753B213F1210FF8
S11345803FF4F6AECFE6084902F00F0211440001F1
S1134590C2B20A76D5E6044F00F00F0012010744B8
S11345A0D2B23A7602E700BFFCEC00E068B1084AF8
S11345B0B2F8003103F00103037092F800316FF395
S11345C0000382F80031002070470120704700BFCB
S11345D000C00140104991F8043143F0010381F80F
S11345E00431B1F80431DB070CD54FF0FF3300E0A0
S11345F033B1B1F80421D20703F1FF33F8D40BB976
S113460014207047044A92F8003160F3000382F8E2
S113461000310020704700BF00C0014070B5214D3B
S113462082B02B6898470120FFF7D4FF0021AE68C1
S11346300320B04701211C4AEC698DF801100323C3
S113464001928DF800300320A047B0F5C97FFAD15C
S113465069460520B0470520A047B0F5C97FFAD1C7
S113466000220124022369468DF806208DF80130CA
S11346708DF802308DF805308DF800402B698DF8E7
S113468003408DF80440052098476B6D042098473B
S1134690AB6A20469847EB6A9847EB6C984702B0A0
S11346A070BD00BF7C6100000000A04100B583B074
S11346B002A9002341F8043D034B06209B69984757
S11346C0019803B05DF804FB7C610000037870B4CA
S11346D023B1012B34D0002070BC704742683649A6
S11346E08A425BD9354B364EF1251D71197A41F05A
S11346F004011972197AF02441F00801B2421972C6
S11347001C7105D91D71197A41F0100119721C71BF
S11347102C4B2D499A4294BF0123022303731C4658
S113472091F81C3103F00703A3423FBF91F81C31F9
S113473023F00703234381F81C310378012BCAD1EA
S113474083681D4A934233D81C4BF1221A711A7A9A
S113475022F004021A721A7AF02122F008021A7264
S11347601971164BF1221A711A7AF02122F01002F3
S11347701A7219711449037B91F81C2102F0070283
S11347809342A8D091F81C2103F0070322F00702FA
S1134790134381F81C31002070BC70470B498A42D6
S11347A0B6D8094A037392F81C31002070BC7047D4
S11347B0034A9342DED8D4E7000E270700200040C6
S11347C000C2EB0BFF67890900C00140FFB3C404BA
S11347D000230370704700BF037841F2360203F0F0
S11347E0E0034260022143F0130341F204028160BA
S11347F003704280704700BF037843F003030370E3
S1134800704700BF014B0360704700BF1462000093
S1134810044B002103F1300243F8041B9342FBD103
S1134820704700BF2C03FE1F024B43F820100020EA
S1134830704700BF2C03FE1F08B57A4BB3F8403114
S1134840D90700F1C180774BB3F840319A0700F1E2
S1134850B080744BB3F840315B0700F19F80714B1B
S1134860B3F84031180700F18E806E4BB3F8403135
S1134870D9067CD46B4BB3F84001C0F380100028F8
S113488069D1684BB3F840311A0658D4654BB3F874
S11348904031DB0547D4634BB3F84031980536D437
S11348A0604BB3F84031590524D45E4BB3F8403122
S11348B01A0512D45B4BB3F84031DB0400D408BDB5
S11348C0594BDB6A002B40F0AA80564AB2F83031CB
S11348D043F48053A2F8303108BD534B9B6A002B3C
S11348E040F09A804F4AB2F8303143F40063A2F8A2
S11348F03031DFE74C4B5B6A002B40F08A80494A39
S1134900B2F8303143F48063A2F83031CDE7464B3E
S11349101B6A002B7AD1434AB2F8303143F4007356
S1134920A2F83031BCE7404BDB69002B6BD13D4A28
S1134930B2F8303143F48073A2F83031ABE73A4B2C
S11349401B68002B5CD1374AB2F8303143F0800346
S1134950A2F830319AE7344B5B68002B4ED1314AD0
S1134960B2F8303143F04003A2F8303189E72E4BDE
S11349709B69002B3FD12B4AB2F8303143F010032E
S1134980A2F8303176E7284B5B698BBB254AB2F835
S1134990303143F00803A2F8303166E7224B1B693B
S11349A01BBB204AB2F8303143F00403A2F8303183
S11349B055E71D4B9B68ABB91A4AB2F8303143F046
S11349C00203A2F8303144E7174BDB683BB9154AC0
S11349D0B2F8303143F00103A2F8303133E7032059
S11349E09847F4E702209847E6E704209847D8E779
S11349F005209847CAE706209847BCE79847AEE7E2
S1134A00002098479FE70720984790E70820984799
S1134A1081E70920984772E70A20984762E70B204C
S1134A20984752E7006000402C03FE1F0278452A95
S1134A302BD8294B9B5CFF2B25D0F0B403F0200628
S1134A404788407806F0FF0403F01F05FEB10124F7
S1134A502B2A04FA05F634D0332A01D1012836D0A2
S1134A609B091E4A52F8233041BBEFF31082012107
S1134A7081F31088196821EA0601196082F310880D
S1134A800020F0BC70470320704701207047134E8C
S1134A9038449B092D1A012256F8233002FA05F6F0
S1134AA00029E2D0EFF3108082F3108819683143B3
S1134AB0196080F310882046F0BC70470320F0BCD6
S1134AC07047072FCCD9013504FA05F6C8E76A1CEC
S1134AD000FA02F6C4E700BF50660000406600001A
S1134AE00121FFF7A3BF00BF0021FFF79FBF00BF55
S1134AF0A0F101000028FBD1704700BF2DE9D0438D
S1134B0001FB00F4FFF7D2FD4FF47A71A4FB018995
S1134B1000274FF0FF364F4508BF46450C4BB3FB0B
S1134B20F0F005D3B8FBF0F0800860B9BDE8D0839D
S1134B308000B4FBF0F0A0FB01018F4208BF864265
S1134B40F3D24FF0FF30BDE8D043FFF7D1BF00BF31
S1134B5000CA9A3B002808DB800000F1804000F581
S1134B60C640036823F48033036070470B4A0C4B40
S1134B7010B49B1A0B4CDB08236063B10A48002174
S1134B809388C3F3090340F8043F236801318B423F
S1134B9002F10802F4D85DF8044B704700050000E8
S1134BA0180500005C03FE1FFC620040164B10B4A5
S1134BB01C687CB1154B00681A681368984218BFCA
S1134BC0002304D10AE052F8041F814207D00133C4
S1134BD0A342F8D103205DF8044B704700230C4A2C
S1134BE012680121134403E0C3E8401F0028F2D0F7
S1134BF0D3E84F2F12F0FF0FF6D0BFF32F8F08200A
S1134C005DF8044B704700BF6003FE1F6403FE1F82
S1134C106803FE1F0F4B10B41C687CB10E4B006878
S1134C201A681368984218BF002304D109E052F8A7
S1134C30041F814206D00133A342F8D15DF8044B2E
S1134C4070470023054A12680021D1545DF8044BD3
S1134C50704700BF6003FE1F6403FE1F6803FE1F4E
S1134C6038B50A4C0A4D0B480B490C4B0C4A0460EE
S1134C702D1BAD080D601A603DB104EB850520467F
S1134C800434FFF7C7FFAC42F9D138BD1805000062
S1134C90C80600006403FE1F6003FE1F6803FE1FB6
S1134CA05002FE1FEFF31081012383F31088124B8F
S1134CB033F8102092B22AB133F81020013A92B29C
S1134CC023F8102033F810309BB293B910B40B4A78
S1134CD00B4CB2F8FE3334F810009BB243F4254376
S1134CE023EA0003A2F8FE3381F310885DF8044B35
S1134CF0704781F3108870476C03FE1F00E0014089
S1134D009C66000030B4EFF31084012383F3108811
S1134D100D4A32F810309BB25BB90C4D0C49B5F812
S1134D20FE3331F810109BB243F425430B43A5F82E
S1134D30FE3332F8103001339BB222F8103084F382
S1134D40108830BC704700BF6C03FE1F00E00140B8
S1134D509C660000024B00221A805A809A80704799
S1134D606C03FE1F0C4A08B513688BB1033020F0A6
S1134D7003000A491844884202D81060184608BD46
S1134D8000F0ACFC0C2303604FF0FF33184608BD61
S1134D90034B1360EAE700BF7403FE1F3014FE1FC9
S1134DA03004FE1F00BE704708B500F005F800F09F
S1134DB05DF9FEE7704700BF284A38B5D2F888305D
S1134DC043F47003C2F888300020FFF7F3FFFFF7C5
S1134DD01FFD234B1B689847FFF7BCFFFFF71EFC22
S1134DE0204A214B21481B68002414809847204AFC
S1134DF0204B9B1A05D01344214603F8011D9A4207
S1134E00FBD11D481D4BC01A07D01D4A184412F887
S1134E10011B03F8011B8342F9D1FFF747FC194C2E
S1134E20194B1A4D18602D1B0120FFF7C3FF032DEA
S1134E30C8BF2D1904DD54F8043B9847AC42FAD19D
S1134E40FFF70EFFFFF792FE114B12481B689847BD
S1134E500020BDE8384000F01FB800BF00ED00E0BE
S1134E60F46000001003FE1F286000007467000057
S1134E70F402FE1F3004FE1FBC02FE1FC001FE1F11
S1134E808C6B00004402FE1F7803FE1F4802FE1FC5
S1134E9010610000A466000000F044B882B04FF036
S1134EA0C84300210091009A1A7D61F300021A752B
S1134EB01A8DD0B1202161F30F221A851A8D4FF07B
S1134EC0C04142F080021A850A68009240F6FF72DF
S1134ED01946019204E0019B013B0193019A12B12E
S1134EE08A6A5206F7D502B070474FF0C04142F4C7
S1134EF07F421A850A6800921A8D60F3C7121A85D8
S1134F000A68009240F6FF711A46019105E0019B80
S1134F10013B0193019B002BE5D0936A5B06F6D419
S1134F2002B07047F8B54D490A684FF0C8440023F1
S1134F3022F0400210200A602063A36123626363AD
S1134F40C4F80438227A63F304022272237DFF2218
S1134F5043F0010323752261237D662243F001039C
S1134F6023752261237D992243F001032375226175
S1134F70237D43F00103237501212320FFF7BEFDA8
S1134F809F232361364B22691A7022695A70216962
S1134F90227D997042F0010222751A78EF2A04D01A
S1134FA000221A705A709A70F8BD5A78402AF7D1C4
S1134FB09A78172AF4D1052020612A4923690B70B5
S1134FC0227D294B42F00102352622752661226991
S1134FD01A70227D42F001022275228D042565F3A8
S1134FE0030222852279502765F303022271276187
S1134FF0227D42F0010222751A78012742F0020252
S11350001A7027610A7822611A782261227D3A4354
S113501022752561227D3A432275228860F30202BB
S11350202280206122690A70227D3A43227526611A
S113503022691A70237D3B432375238843F0400380
S11350402380A369DB074FF0C845FAD40120FFF79A
S113505025FF2B7D6FF300032B75F8BD0070044012
S11350607C03FE1F8003FE1F8403FE1F08B500F0AF
S113507003F8002008BD00BF2DE9F84F254FDFF8E5
S1135080A4B0FE683D6879683368234CDFF8A0A0BB
S1135090DFF8A09028469847B9687368284698476F
S11350A0B368284698471D4BD3F808801F68596891
S11350B0D8F8002038469047194B18607369194A8C
S11350C00021284698472388BBF80020C3EBC3136C
S11350D01344DB112380DAF80430B2F5487F8CBF27
S11350E01B6A1B6A4FF001014FF4C0609CBF002192
S11350F04FF4C06098470C4A23880C48052100F0FF
S1135100FBFAD8F808300949384605229847C9F807
S11351100000D3E7F06600002804FE1FD0660000FC
S11351202004FE1F2A04FE1FE46A00001804FE1F68
S1135130B06600002404FE1F7BB972B90029BEBF0B
S113514000204FF0004106E008BF00281CBF6FF0AC
S113515000414FF0FF3000F03BB882B0EC462DE93F
S1135160005000F005F8DDF804E002B00CBC704714
S11351702DE9F041069C154606460F46984600F078
S113518029F805FB01F300FB0838A5FB0023B21A3C
S1135190434467EB0303C4E90023BDE8F08100BF87
S11351A02DE9F041069C904606460F461D4600F048
S11351B05FF900FB05F5A0FB082308FB0155B21AB3
S11351C02B4467EB0303C4E90023BDE8F08100BF6F
S11351D0704700BF00292DE9F043C0F2A6800026E5
S11351E0002BC0F29C80884694469E461546044691
S11351F00F46002B3DD18A4259D9B2FA82F33BB112
S1135200C3F120029F4020FA02F29D4017439C40C4
S1135210290C220CB7FBF1FEA8B201FB1E7742EA6F
S1135220074700FB0EF3BB420AD97F190EF1FF3288
S113523080F00581BB4240F20281AEF1020E2F44A0
S1135240FF1AA4B2B7FBF1F301FB137744EA074753
S113525000FB03F0B84208D97F1903F1FF3280F054
S1135260F080B84240F2ED80023B43EA0E43002254
S113527003E08B420FD900221346341C18BF0124CB
S113528060424FF0000565EB45015840514000195C
S11352906941BDE8F083B3FA83F2002A40F08680C6
S11352A08B4202D3844500F2DB800123E5E712B987
S11352B00123B3FBF2F5B5FA85F000283BD1781B46
S11352C04FEA154E1FFA85FC0122B0FBFEF8210CB3
S11352D00EFB180741EA07470CFB08F3BB4207D94A
S11352E07F1908F1FF3102D2BB4200F2BD8088462B
S11352F0FF1AA4B2B7FBFEF30EFB137744EA074789
S11353000CFB03FCBC4507D97F1903F1FF3102D222
S1135310BC4500F2A7800B4643EA0843ADE752427E
S11353206FEA060663EB43035DE7404261EB41012C
S11353304FF0FF3654E7C0F1200224FA02F107FAD5
S113534000F385404FEA154ED7401943B7FBFEF2F0
S11353500B0C0EFB12771FFA85FC43EA07430CFB88
S113536002F79F4204FA00F407D95B1902F1FF30F7
S113537074D29F4272D9023A2B44DF1B89B2B7FB25
S1135380FEF80EFB187341EA03430CFB08F79F4237
S113539008D95B1908F1FF315CD29F425AD9A8F1B0
S11353A002082B44D81B48EA02428EE7C2F12003CC
S11353B02CFA03F10EFA02FE20FA03F741EA0E0E6C
S11353C008FA02F028FA03F14FEA1E453843B1FB0C
S11353D0F5F8030C05FB18111FFA8EF743EA014197
S11353E007FB08F38B420CFA02FC09D911EB0E01FE
S11353F008F1FF3930D28B422ED9A8F1020871444A
S1135400C91A80B2B1FBF5F305FB131140EA01415F
S113541007FB03F78F4208D911EB0E0103F1FF30AC
S113542016D28F4214D9023B714443EA0843C91B84
S1135430A3FB0C89494509D305D000221DE79646F4
S1135440FEE6134611E794404445F6D2013BF4E7E7
S11354500346EAE78846A5E7C846D1E702468CE753
S113546013460AE7023B57E7A8F102082F443FE737
S11354702DE9F041002B44D18A42154604464FD908
S1135480B2FA82F70E464FB1C7F12003B94020FAB1
S113549003F602FA07F50E4300FA07F44FEA154E35
S11354A0230CB6FBFEF0AFB20EFB106143EA0143DE
S11354B007FB00F1994209D95B1900F1FF3280F032
S11354C0EC80994240F2E98002382B445A1AA4B283
S11354D0B2FBFEF30EFB132244EA024207FB03F77E
S11354E0974208D9521903F1FF3180F0D8809742CE
S11354F040F2D580023B43EA004000263146BDE835
S1135500F0818B4247D8B3FA83F6002E48D18B4200
S113551002D3824200F2CD8001203146BDE8F08101
S113552012B90125B5FBF2F5B5FA85F8B8F1000F0B
S113553077D14A1B4FEA154EAFB20126B2FBFEF0FB
S1135540230C0EFB102143EA014107FB00F38B42BD
S113555007D9491900F1FF3202D28B4200F2BA8016
S11355601046C91AA4B2B1FBFEF30EFB131144EAB0
S1135570014407FB03F7A74208D9641903F1FF327A
S113558080F08F80A74240F28C80023B43EA0040C7
S11355903146BDE8F081002630463146BDE8F08151
S11355A0C6F1200422FA04F5B3402B4320FA04FC8C
S11355B001FA06F721FA04F54FEA134E4CEA0707FD
S11355C0B5FBFEF8390C0EFB18551FFA83FC41EAB3
S11355D005450CFB08F1A94202FA06F204D9ED18BC
S11355E008F1FF3467D3A0466D1ABFB2B5FBFEF4D1
S11355F00EFB145547EA05410CFB04FC8C4504D909
S1135600C91804F1FF355CD32C4644EA0844CCEBBA
S11356100101A4FB0223994248D344D0204600262A
S11356206CE7C8F1200401FA08F305FA08F520FA3A
S113563004F7E1404FEA154E1F43B1FBFEF63A0C66
S11356400EFB16111FFA85FC42EA01430CFB06F21D
S11356509A4200FA08F407D95B1906F1FF3137D2F0
S11356609A4235D9023E2B449B1ABFB2B3FBFEF0DB
S11356700EFB103347EA03430CFB00F1994207D9B0
S11356805B1900F1FF3221D299421FD902382B4411
S11356905A1A40EA0646674650E7104616E70B4694
S11356A029E7134672E7B0409042B7D2601E002645
S11356B024E7304622E7A94295D9A8F102081D44FF
S11356C092E78C45A0D9023C19449EE71046DFE7D7
S11356D00E46C9E70238294443E700BF014B186866
S11356E0704700BF4002FE1F02440346934202D0AB
S11356F003F8011BFAE770470CB430B5164B0C1EC7
S11357009DB01D6804DA8B232B604FF0FF301EE040
S11357104FF40273ADF8143014BF04F1FF33234681
S1135720049307934FF6FF7302900690ADF816307A
S1135730284621AB02A9209A019300F069F8431C82
S1135740BCBF8B232B6014B1029B00221A701DB0C6
S1135750BDE8304002B070474002FE1F2DE9F0471B
S11357608E68B34282460C469046994640D38A8955
S113577012F4906F3AD0256809696F1A656902239B
S113578005EB450595FBF3F57B1C4B449D4238BF67
S11357901D4653050FD5294600F03CFB064698B13B
S11357A021693A4600F0CBFAA38923F4906343F0CD
S11357B08003A38113E02A4600F082FB064670B9F9
S11357C05046216900F0E2FA0C23CAF80030A3899C
S11357D043F04003A3814FF0FF30BDE8F08726611A
S11357E065613E44ED1B2660A5604E46B14500D27E
S11357F04E4632462068414600F0ACFAA3689B1B33
S1135800A36023681E4426600020BDE8F087FFFFE4
S11358102DE9F0439DB0064603938B891C060D4683
S113582090460CD50B6953B9402100F0F3FA286077
S1135830286110B90C233360CCE040236B61002352
S1135840099320238DF8293030238DF82A304346DC
S11358501C4613F8012B1AB9B4EB08090FD002E067
S1135860252AF5D1F8E73046294642464B46FFF74C
S113587075FF013000F0A980099B4B4409932378FC
S1135880002B00F0A28000234FF0FF320493079313
S1135890059206938DF853301A9304F10108444697
S11358A0DFF8489121784846052200F039FA08F1DA
S11358B00108049B30B1C9EB00000122824013436C
S11358C00493ECE7D80644BF20228DF8532019072F
S11358D044BF2B228DF8532022782A2A02D007991C
S11358E023460EE0039A111D12680391002ABBBFE0
S11358F0524243F0020307920792B8BF0493013463
S11359000AE01C4601332278303A092A03D80A20D7
S113591000FB0121F5E7079123782E2B1AD1637838
S11359202A2B0AD1039B1A1D1B680392002BB8BFB4
S11359304FF0FF33023405930CE0611C00220C4647
S113594001312378303B092B03D80A2000FB0232B3
S1135950F5E70592DFF8988021784046032200F0AD
S1135960DFF938B1049AC8EB0000402383401343A5
S11359700493013421781A488DF82810062204F182
S1135980010800F0CDF988B1164B33B9039B0733F6
S113599023F007030833039313E003AB009330466B
S11359A004A92A46104BAFF3008007E003AB009331
S11359B0304604A92A460C4B00F092F8421C0746D4
S11359C003D0099B3B44099341E7AB895B0601D4AF
S11359D0099801E04FF0FF301DB0BDE8F08300BF2F
S11359E0F46A0000000000005D570000EA6A00004D
S11359F0F06A00002DE9F84391461F468A680B6956
S1135A00DDF820809342B8BF1346C9F8003091F8FE
S1135A10432006460C4612B10133C9F8003023680E
S1135A20990642BFD9F800300233C9F8003025681E
S1135A3015F006051CD094F843302268003318BFD3
S1135A40012392061FD5E1185A1C302081F8430027
S1135A50224494F8451082F84310023313E0304690
S1135A60394604F119020123C047013007D001353A
S1135A70E368D9F800209B1A9D42F0DBDBE74FF086
S1135A80FF30BDE8F8833046394604F14302C0478D
S1135A900130F4D02268D9F80050E36802F006021D
S1135AA0042A08BF5D1B2269A3680CBF25EAE575BB
S1135AB000259342C4BF9B1AED184FF00009A94575
S1135AC00ADA3046394604F11A020123C04701308C
S1135AD0D5D009F10109F2E70020BDE8F883FFFF02
S1135AE02DE9FF410C461746227E6E2A984606464B
S1135AF00A9B01F1430100F0AF8012D8632A23D03E
S1135B000AD8002A00F0BC80582A40F0CB8084F8E0
S1135B104520DFF804E257E0642A1ED0692A1CD02D
S1135B20C0E0732A00F0B08009D86F2A2ED0702A02
S1135B3040F0B880226842F0200222603FE0752ADB
S1135B4024D0782A3BD0ADE01A68111D196013687F
S1135B5084F8423004F14205A8E020681A6810F085
S1135B60800F02D0101D186008E010F0400F02F101
S1135B700400186002D0B2F9003000E01368002B72
S1135B803EDA2D225B4284F8432039E020681A680B
S1135B9010F0800F02D0101D186007E010F0400FC5
S1135BA002F10400186001D0138800E01368227E1B
S1135BB0DFF864E16F2A0CBF08220A221CE0782275
S1135BC0DFF858E184F845202268186812F0800F45
S1135BD000F104051D6003D1550601D5038800E0DA
S1135BE00368D00744BF42F0200222601BB9226838
S1135BF022F0200222601022002084F8430002E0F8
S1135C00DFF814E10A226568A560002DA2BF2068B0
S1135C1020F00400206003B965B10D46B3FBF2F037
S1135C2002FB10331EF8033005F8013D034600283B
S1135C30F4D100E00D46082A0BD12368DA0708D511
S1135C40236962689A42DEBF302305F8013C05F1FE
S1135C50FF35491B21612EE025681A68606915F03B
S1135C60800F03D0151D1D60136808E015F0400F68
S1135C7002F104051D60136801D0188000E018606B
S1135C80002323610D4616E01A68111D196015687A
S1135C9062682846002100F043F808B1401B6060A8
S1135CA0636804E004F1420584F84220012323617F
S1135CB0002384F84330CDF800803046214603AAFF
S1135CC03B46FFF797FE013002D14FF0FF301FE053
S1135CD0304639462A462369C0470130F5D0236847
S1135CE09B0705D4E068039B9842B8BF18460FE0B1
S1135CF00025E368039A9B1A9D42F3DA304639463D
S1135D0004F119020123C0470130DED00135F0E768
S1135D1004B0BDE8F08100BFFB6A00000C6B00001A
S1135D2010B5C9B202449042034606D01C788C4296
S1135D3000F10100F7D1184610BD002010BD10B5C8
S1135D40431E0A44914204D011F8014B03F8014F59
S1135D50F8E710BD814210B501EB020301D3421EE6
S1135D600BE09842FBD28118D21AD34204D013F824
S1135D70014D01F8014DF8E710BD994204D011F826
S1135D80014B02F8014FF8E710BDFFFF30B50029C1
S1135D903DD051F8042C0B1F1D49002AB8BF9B1895
S1135DA00A680C4612B95A600B6030BD93420DD29A
S1135DB019685818904201BF5A5852181A6042681C
S1135DC05A60236030BD994203D80A4651680029BD
S1135DD0F9D1146815199D420AD11B682344D018BF
S1135DE08842136013D10868034413604B680DE0C4
S1135DF002D90C23036030BD1C681819884204BF03
S1135E0008684968596004BF00191860536030BDC0
S1135E109803FE1F70B5CC1C24F0030408340C2C2A
S1135E2038BF0C24002C064603DA0C233360002010
S1135E3070BD8C42F9D3204A136810461946A1B1AB
S1135E400A68121B0ED40B2A03D90A608B188C50D3
S1135E501FE08B420DBF5A684A685A60026018BF3F
S1135E600B4616E00B464968E9E7144D2B681BB94D
S1135E70304600F04BF828603046214600F046F8E2
S1135E80421C0346D1D0C51C25F0030585420AD126
S1135E901C6003F10B001A1D20F00700821A0AD0BF
S1135EA05142995070BD3046E91A00F02FF8013084
S1135EB0BBD02B46ECE770BD9803FE1F9403FE1F76
S1135EC0F8B5074615460E4621B91146BDE8F84017
S1135ED0FFF7A0BF1AB9FFF759FF2846F8BD00F035
S1135EE025F8A8420ED238462946FFF793FF044608
S1135EF050B131462A46FFF722FF38463146FFF7B4
S1135F0045FF01E03046F8BD2046F8BD38B5064CE3
S1135F100023054608462360FEF724FF431C02D1F4
S1135F20236803B12B6038BD2C04FE1F51F8040C08
S1135F300028BEBF091851F8043CC0180438704743
S1135F404275696C7420776974682052656E657354
S1135F5061732053796E657267792028544D292026
S1135F60536F667477617265205061636B61676516
S1135F702076657273696F6E20312E332E302B625A
S1135F8075696C642E31623034356465666331360C
S1135F9031000000312E332E3000000000000301D8
S1135FA0F8B500BFF8BC08BC9E467047F8B500BF02
S1135FB0F8BC08BC9E4670470600000001000800BB
S1135FC001010000100000010000180000000101A0
S1135FD020000000000040000001000160000000FB
S1135FE001028000000000010001000100028001A4
S1135FF0000001030002000000020004000100038D
S1136000000800000003FFFF000408109D0A0000C0
S11360108D080000E5100000B1110000D107000058
S1136020C10F00002507000061190000811800005D
S1136030D9190000591600005D150000ED15000087
S113604029180000C5140000A91A00005D170000FB
S113605035150000B51500000D15000025170000CA
