S0150000426C696E6B7950726F6A6563742E73726563CF
S11300003021FE1F452F00007D2A0000412F0000F3
S1130010412F0000412F0000412F0000000000008C
S1130020000000000000000000000000412F00005C
S1130030412F000000000000412F0000412F00006C
S1130040FFFFFFFFFFFFFFFFFFFFFFFFFFFFFFFFBC
S1130050FFFFFFFFFFFFFFFFFFFFFFFFFFFFFFFFAC
S1130060FFFFFFFFFFFFFFFFFFFFFFFFFFFFFFFF9C
S1130070FFFFFFFFFFFFFFFFFFFFFFFFFFFFFFFF8C
S1130400FFFFFFFFFFFDFFFFFFFFFFFFFFFFFFFFFA
S1130410FFFFFFFFFFFFFFFFFFFFFFFFFFFFFFFFE8
S1130420FFFFFFFFFFFFFFFFFFFFFFFFFFFFFFFFD8
S1130430FFFFFFFFFFFFFFFFFFFFFFFFFFFFFFFFC8
S1130440FFFFFFFFFFFFFFFFFFFFFFFFFFFFFFFFB8
S1130450FFFFFFFFFFFFFFFFFFFFFFFFFFFFFFFFA8
S1130460FFFFFFFFFFFFFFFFFFFFFFFFFFFFFFFF98
S1130470FFFFFFFFFFFFFFFFFFFFFFFFFFFFFFFF88
S1130480FFFFFFFFFFFFFFFFFFFFFFFFFFFFFFFF78
S1130490FFFFFFFFFFFFFFFFFFFFFFFFFFFFFFFF68
S11304A0FFFFFFFFFFFFFFFFFFFFFFFFFFFFFFFF58
S11304B0FFFFFFFFFFFFFFFFFFFFFFFFFFFFFFFF48
S11304C0FFFFFFFFFFFFFFFFFFFFFFFFFFFFFFFF38
S11304D0FFFFFFFFFFFFFFFFFFFFFFFFFFFFFFFF28
S11304E0FFFFFFFFFFFFFFFFFFFFFFFFFFFFFFFF18
S11304F0FFFFFFFFFFFFFFFFFFFFFFFFFFFFFFFF08
S113050020000000200001002F0000002F00010047
S11305100C00010011000000300000003000010058
S11305202400000024000100240002002400030031
S1130530240004002400050013000000170000003C
S1130540230000002100000021000100070000003A
S11305500700010007000200070003000700040071
S1130560070005000700060007000700120000004E
S113057044000000080000000B00000041000000DF
S1130580400000004000010004000000430000009F
S11305902B0000002B000A002B000B002B000C008A
S11305A02B000D002B0001002B0002002B00030088
S11305B02B0004002B0005002B0006002B00070075
S11305C02B0008002B0009000600000006000A00AA
S11305D006000B0006000C0006000D0006000E00CD
S11305E006000F00060001000600020006000300DA
S11305F006000400060005000600060006000700C9
S1130600060008000600090015000000150001009E
S113061015000200310000002A000000450000001F
S113062010000000030100000300000003000100AB
S11306300F0000000D0000002D000000420000002B
S11306402C0000002C0001002C0002002C000300F0
S11306503200000028000000180000001400000010
S1130660140001001400020014000300140004002C
S1130670140005001400060014000700140008000C
S113068014000900340000003400010016000000CA
S1130690160001003500000036000000360001009D
S11306A02200000033000000330100002900000094
S11306B010B5054C237833B9044B13B10448AFF398
S11306C000800123237010BDB000FE1F0000000055
S11306D0AC3C0000084B10B51BB108480849AFF307
S11306E000800848036803B910BD074B002BFBD0FA
S11306F0BDE81040184700BF00000000AC3C0000FB
S1130700B400FE1F0800FE1F0000000070B4104C6F
S11307102368020A9A4216D26568C0B200F1100634
S1130720012355F8225003FA06F62E420BD069B184
S113073000EB0210A36853F82030C3F340030020F9
S11307400B7070BC7047032070BC70471846FBE701
S11307507800FE1F084B1A68000A904201D3032058
S1130760704731B1DA684301043200209B580B8092
S113077070470120704700BF7800FE1F084B1A68BD
S1130780000A904201D30320704739B1DA6843016B
S1130790043200209B581B0C0B80704701207047CB
S11307A07800FE1F144A1368F0B4040A9C421DD258
S11307B05768C5B205F11006012357F8244003FA1F
S11307C006F6264212D0A1B1D468000A04344001CE
S11307D003FA05F2005992B202EA1040904213BFA4
S11307E0002000200B700870F0BC70470320F0BCA0
S11307F070471846FBE700BF7800FE1F0C4B10B48F
S11308001C68000AA04200D21AB903205DF8044B08
S11308107047DB685DF8044B083303EB401022EAB1
S11308200103114041EA034141600020704700BFC9
S11308307800FE1F134BF0B41C68020AA2420AD2CD
S11308405F68C5B205F11006012457F8222004FAA6
S113085006F6164202D10320F0BC70470129FAD8EB
S113086000F47F400AD0AC4024040021DB68083344
S113087003EBD0000C4344600020EDE7A94089B2AB
S11308800024F3E77800FE1F40B101230421022273
S113089001704370C370827000207047012070475C
S11308A0012901D9032070472C4BF0B51C68020ABA
S11308B0A2424ED25D68C0B200F11006012455F880
S11308C02250B4402C4244D000EB02109C681D69B5
S11308D054F8203000293ED043F00401204E0E404D
S11308E0EFF31087012383F310881E4B1A8892B20A
S11308F022B94FF0400EEA7085F803E01A880132FD
S113090092B21A8087F31088CF0354F8202007D5B9
S1130910154F22F480320F4044F8202044F8207010
S113092044F82060EFF31081012282F310881A88C2
S11309300C4892B21AB10288013A92B202801B8822
S11309409BB213B98022EB70EA7081F31088002007
S1130950F0BD0320F0BD23F00401BFE77800FE1FC3
S1130960D5FC011FCC00FE1FD5FC001F0AB90320D3
S113097070470B4B10B41C68000AA04203D3032039
S11309805DF8044B7047DB6822EA01044001083338
S11309900A4042EA0442C2505DF8044B002070470A
S11309A07800FE1F0AB9032070470D4B70B41C6811
S11309B0000AA04202D3032070BC70474001DD68E6
S11309C02E582B5802EA01043443A4B261EA02020D
S11309D01B0C22401B041A432A50002070BC704791
S11309E07800FE1F2DE9F041002839D009681E4D1A
S11309F0002701EBC000B8464FF0010E8C8800239D
S1130A0035F81320A24218D00133032BF8D1083152
S1130A108142F3D1FF43FFB2012002F061FA134A8D
S1130A2092F8BB3448EA030808EA070782F8BB7463
S1130A300120BDE8F04102F023BA0A6802F0B8527E
S1130A40B2F1807F05D00EFA03F647EA0602D7B268
S1130A50DAE70EFA03F248EA02085FFA88F8D3E705
S1130A608046FF27D8E700BF1833000000E00140AC
S1130A7070B582B002AB002403F8044D0546184655
S1130A800E4601F0DBFF9DF80430DB0702D406209C
S1130A9002B070BD202D02D9032002B070BD012E1A
S1130AA0FAD8084B1A69137805D02B4303F03003A6
S1130AB020461370ECE703F0300323EA05052046D3
S1130AC01570E5E77800FE1F002867D02DE9F84F80
S1130AD04368002B5FD00146804631F8040BFFF7D2
S1130AE081FFB8F80030002B52D02D4CDFF8B4E071
S1130AF0A146002201204FF0400B4FF0800AD8F8A5
S1130B000430DEF8107053F83260DEF8085003EB5E
S1130B10C20399880B0AC9B201EB0313EFF3108CDB
S1130B2080F31088218889B211B9F97087F803B06D
S1130B302188013189B221808CF3108816F4803F1A
S1130B4055F8231007D021F4803126F4803C45F871
S1130B50231045F823C045F82360EFF3108180F398
S1130B60108823889BB22BB1B9F80030013B9BB2AB
S1130B70A9F8003023889BB213B9FB7087F803A04F
S1130B8081F310880132B8F8003092B29342B6D89B
S1130B900020BDE8F88F0120BDE8F88F01207047E0
S1130BA0CC00FE1F7800FE1F002832D04368002BC3
S1130BB02FD0F0B587B006AC002309210193164A63
S1130BC004F8141D154ED768029305460393049345
S1130BD0059302A92046B8474FF00A0C029ABDF8C3
S1130BE00C308DF804C002A9F2602046059A7260A8
S1130BF03360B8470122029B8DF8052002A92046E4
S1130C00B360B847029B33612846FFF75DFF07B026
S1130C10F0BD0120704700BFA83300007800FE1F1C
S1130C202DE9F041304C2268050A954284B0034610
S1130C300CD26268C6B20F464FF0010806F11001EB
S1130C4052F8252008FA01F1114203D1032004B01F
S1130C50BDE8F08104A902AA41F80C2D4046ADF884
S1130C600C300297ADF8008006EB0515FFF7BAFECD
S1130C702069A268EFF3108488F310881B490B885D
S1130C809BB213B94026C370C6700B8801339BB264
S1130C900B8084F31088FC0352F8253007D523F425
S1130CA0803327F4803442F8253042F8254042F856
S1130CB02570EFF31082012383F310880B880B4C0B
S1130CC09BB25BB90B889BB213B98021C370C1700E
S1130CD082F31088002004B0BDE8F0812388013B32
S1130CE09BB22380EEE700BF7800FE1FCC00FE1FFE
S1130CF0012901D9032070472C4BF0B51C68020A66
S1130D00A2424ED25D68C0B200F11006012455F82B
S1130D102250B4402C4244D000EB02109C681D6960
S1130D2054F8203001293ED023F00101204E0E401A
S1130D30EFF31087012383F310881E4B1A8892B2B5
S1130D4022B94FF0400EEA7085F803E01A880132A8
S1130D5092B21A8087F31088CF0354F8202007D565
S1130D60154F22F480320F4044F8202044F82070BC
S1130D7044F82060EFF31081012282F310881A886E
S1130D800C4892B21AB10288013A92B202801B88CE
S1130D909BB213B98022EB70EA7081F310880020B3
S1130DA0F0BD0320F0BD43F00101BFE77800FE1F52
S1130DB0D5FC011FCC00FE1FD5FC001F024658B114
S1130DC0064B07491B68002B08BF0B4600205968D7
S1130DD003EB810313607047012070478C00FE1FF2
S1130DE09C34000088B10A4B1B6863B15A6800F157
S1130DF0100103EB820353F8042F40F8042B8842BC
S1130E00F9D1002070471C2070470120704700BFB3
S1130E108C00FE1F70B36AB3174BF0B51E681EB387
S1130E20164B07781B68002404E00134B44203F134
S1130E30080319D09D79BD42F7D193F805E04588A0
S1130E40B5EB9E0FF1D1DD7990F801E005F00F0CC0
S1130E50F445EAD1B1EB151FE7D19B881470C3F3B5
S1130E60090353800020F0BDDF21FF23117053805C
S1130E700B20F0BD012070470401FE1FF438000070
S1130E8020B1034B1B6803600020704701207047AA
S1130E90C033000070B42A4C216851B1234604F5D4
S1130EA07F70002201E053F8041F83420A44FAD100
S1130EB01AB100BE1D2070BC7047224D22482A6022
S1130EC00368190CB1F5807F02D0002070BC704714
S1130ED0196801390331F8D81C495E6A8E42F4D18D
S1130EE02B6001686368486804EB830301EB8001AD
S1130EF001F12300233301214FF47E4503E0013245
S1130F0001310138013B25FA02F4E40707D5072A29
S1130F1010D0082A07D01E780478A642C9D1102917
S1130F20EDD10020D2E70478372CE8D01E78A64211
S1130F30E5D0BEE706781C78A642E0D2B9E700BF48
S1130F409C3400008C00FE1F9CB17F4052374653F6
S1130F5000285ED000295CD08B4B2DE9F0439A68C1
S1130F6090F800C003EB82029478A44537D24FEA8C
S1130F701C1802EB88060CF00F073589D2F804E040
S1130F8025FA07F919F0010F29D0072FB67A09D9E4
S1130F9002EB88080CF0070798F80BC00CF00F0C54
S1130FA066442D0ADFF8E481DFF8E4C118F807800D
S1130FB0754F08EA050524091CF80550023402EBB4
S1130FC08402AC1902EB440532F814206C78C2F3A5
S1130FD00902250603EB820305D4002B4BD14FF401
S1130FE0AF60BDE8F08317F8222045785208FDB1C0
S1130FF04FF0020E012604271C78E40705F1FF35A3
S113100052D5052A00F2BE80DFE802F0332D211C00
S11310101A05012070479A781EFB0264033204EB20
S11310209202920013441A7854082246002DE3D108
S1131030042A00F2A480DFE802F0636363503B00FB
S11310400822EFE79A7817FB02629200EAE793F826
S113105004C09C7814FB0CF2D41C0CF1030204EBC6
S113106092029200DEE71A79033222F003020C3274
S1131070D8E70C22D6E74478B4B9DC78C4F3031477
S11310804C72DC780125C4F303048C728D80408893
S1131090002843D137F822200EEB02220A609B7805
S11310A0CB800872C86015E040F27950BDE8F08347
S11310B0DA78C2F303124A72DA78C2F303028A724C
S11310C05878C88000228A800A72CA605B680B6004
S11310D08307E9D50020BDE8F083DA78C2F3031270
S11310E04A72DA78C2F303028A725A78CA809A780A
S11310F08A80043304200022CB6008720A60E9E786
S1131100DC78C4F303144C72DC78C4F303048C72EB
S11311101D79ACB28C804088844203D840F27A5066
S1131120BDE8F083DC889E68012A04FB00640C603F
S11311301CD0022A0AD09C785B78002243EA04245B
S1131140CC800A72CA60002CE8D0C3E71C18EA1CE1
S1131150247BCC809D780D72920805FB002003EB64
S113116080030C33CB60002CD8D0B3E703440022B7
S11311701C7BCC800A72CA60002CCFD0AAE7642002
S1131180BDE8F08300224DE79C34000020330000CA
S113119028330000034B04301B6823F82010002080
S11311A0704700BFD000FE1F034B021D1B680020C8
S11311B023F82200704700BFD000FE1F034B1A68BB
S11311C0137863F07F03137000207047D000FE1F74
S11311D0034B1A68137803F07F03137000207047E1
S11311E0D000FE1F20B1034B1B6803600020704732
S11311F001207047E033000060B1012808D1094B99
S11312001B68002040214122187119711A7170471E
S113121001207047034B1B6840214122987099704C
S11312209A707047D000FE1F002836D070B51C4954
S113123086B000230B220193029303930493059336
S11312400546CB688DF8042001A802A998470446F6
S113125008B106B070BD134E029B336001A801F0C3
S113126061FD6B6873B130682346AA6812F82310D5
S113127002EB83020431528820F821206A6801338A
S11312809A42F2D828780028E3D0326813780020F4
S113129063F07F03137006B070BD0120704700BF78
S11312A0A8330000D000FE1F094A0A4B12680A48FE
S11312B0916910B4D46919604FF400420021DC60D4
S11312C0586059619A601A615DF8044B704700BF19
S11312D0A800FE1F9000FE1F00127A00374B1B6807
S11312E093F8283013F030023DD0102A0DD0202A74
S11312F03AD0DFED337A334AF0EE676A67EEA67AC6
S1131300FCEEE77AC2ED057A7047028D2E4902F0B1
S1131310030231F8121000294CD05B0610B44AD5F0
S1131320038D13F0100F0CBF03240024254A038DF2
S113133052F824005DF8044B07EE900AB8EE677A81
S113134007EE901AB8EE676AC3F30523C7EE067A70
S1131350013306EE903AFAEEEF6A67EEA67AFCEEF7
S1131360E77AC2ED057A704790F82B30174A9B094B
S113137032F813100029F6D0124A90F82B30D2ED2F
S1131380037A03F01F03B8EE677A06EE903A07EE8D
S1131390901AF8EE666AB8EE676AF7EE007A76EEAF
S11313A0A76AC7EE067A67EEA67AFCEEE77AC2ED84
S11313B0057A704770470324B8E700BFA800FE1FF2
S11313C0000000009000FE1FEC330000E433000036
S11313D0F8B50D4B1B68064693F8205093F821701E
S11313E000200C4601F07CFD96F81324E9B2BC40C1
S11313F00C4022EA010344EA030186F81314002096
S1131400BDE8F84001F03CBDA800FE1FF8B50D4B47
S11314101B68064693F8225093F8237000200C466C
S113142001F05EFD96F88124E9B2BC400C4022EA4A
S1131430010344EA030186F881140020BDE8F84062
S113144001F01EBDA800FE1F38B505460C4600205D
S113145001F046FD052C0AD8DFE804F019242F0317
S11314603A0E95F8323023F0010385F8323000202B
S1131470BDE8384001F004BD95F82A3023F001039B
S113148085F82A300020BDE8384001F0F9BC95F811
S1131490363023F0010385F836300020BDE83840AB
S11314A001F0EEBC95F8383023F0010385F83830AC
S11314B00020BDE8384001F0E3BC95F8903423F0F7
S11314C0010385F890340020BDE8384001F0D8BC11
S11314D095F8803423F0010385F880340020BDE8BA
S11314E0384001F0CDBC00BF38B505460C4600209D
S11314F001F0F6FC052C0AD8DFE804F019242F03C8
S11315003A0E95F8323043F0010385F8323000206A
S1131510BDE8384001F0B4BC95F82A3043F001032B
S113152085F82A300020BDE8384001F0A9BC95F8C0
S1131530363043F0010385F836300020BDE83840EA
S113154001F09EBC95F8383043F0010385F838303B
S11315500020BDE8384001F093BC95F8903443F086
S1131560010385F890340020BDE8384001F088BCC0
S113157095F8803443F0010385F880340020BDE8F9
S1131580384001F07DBC00BF03290ED0052907D0E7
S113159009B10020704790F83C0000F0010070474A
S11315A090F83C00C0F34010704790F83C00C0F342
S11315B0C000704705292ED8DFE801F00A11181F72
S11315C0260390F82A0000F0010080F00100704723
S11315D090F8360000F0010080F00100704790F8A8
S11315E0380000F0010080F00100704790F890048A
S11315F000F0010080F00100704790F8320000F024
S1131600010080F00100704790F8800400F00100B0
S113161080F0010070470020704700BF036A90F813
S11316202630704738B5054600200C4601F058FCBA
S113163095F8133404F0010123F0400343EA8111C7
S113164085F813140020BDE8384001F019BC00BF30
S113165038B505460020144601F042FC95F8A22056
S113166004F00F0422F00F02144385F8A240002076
S1131670BDE8384001F004BC084B1B6893F82830DF
S113168013F0300F04D104288CBF002001207047D0
S113169005288CBF00200120704700BFA800FE1F52
S11316A006288CBF00200120704700BF90F8260058
S11316B000F00700704700BF38B5054600200C460F
S11316C001F00EFC95F8261004F0070421F0070140
S11316D00C4385F826400020BDE8384001F0D0BB1B
S11316E0074B1B6893F828305B0601D4032070472E
S11316F0038D13F0100F0CBF03200020704700BFB0
S1131700A800FE1F38B5044600200D4601F0E8FB92
S1131710238D032D0CBF23F0100343F01003238506
S11317200020BDE8384001F0ABBB00BF38B5224C07
S11317302DED028B236893F8283003F03003102B2F
S11317400546B0EE408A1CD0202B02D0BDEC028BA3
S113175038BD002001F0C4FBFCEEC87A95F82B10CC
S113176017EE903A013B03F01F0221F01F031343CD
S113177085F82B30BDEC028B0020BDE8384001F029
S11317807FBB002001F0ACFB78EE087A2A8DFCEEDA
S1131790E77A22F47C5217EE903A013B03F03F03C0
S11317A042EA03232B85002001F06AFB236893F8A7
S11317B0283003F03003C7E7A800FE1F70B51E4CA5
S11317C0236893F8283003F03003102B82B00546C9
S11317D019D0202B01D002B070BD184B002033F873
S11317E0114001F07DFB95F82B3004F0030403F065
S11317F03F0343EA8413002085F82B3002B0BDE890
S1131800704001F03DBB0E4B0191002033F8116094
S113181001F066FB2B8D06F0030623F003031E4341
S11318202E85002001F02CFB2368019993F82830C1
S113183003F03003CDE700BFA800FE1FFC33000017
S1131840F433000038B51A4B1A6892F8293092F82C
S11318502A200546180748BF08784FF0000448BFFF
S113186060F30E34D80644BF487860F30A2498061F
S113187044BF887860F30614580644BFC87860F300
S11318800204D20744BF0A7962F312441B0644BF20
S11318904B7963F31E748B79002063F31A6401F0AF
S11318A01FFB2C620020BDE8384001F0E9BA00BFFC
S11318B0A800FE1F036AC3F302330B70036AC3F369
S11318C002234B70036AC3F302138B70036A03F0A1
S11318D00703CB70036AC3F302430B71036AC3F3B8
S11318E002734B71036AC3F302638B71704700BFC9
S11318F0144B42781B6893F8241091421ED393F83A
S1131900262090ED017A07EE902AF8EE677AF4EE3D
S1131910C77AF1EE10FA11D493F8253007EE903A15
S1131920F8EE677AB4EEE77AF1EE10FA06D40078AE
S1131930032805D0B0FA80F04009704700207047B2
S113194001207047A800FE1F062921D8DFE801F016
S1131950080C1014181C0400006AC0F302607047DD
S1131960006AC0F302307047006AC0F30220704777
S1131970006AC0F302107047006A00F00700704765
S1131980006AC0F302407047006AC0F302707047F7
S11319900020704710B50446FFF7D6FF94F82630B0
S11319A0034A03F0070352F8233023FA00F010BD72
S11319B09000FE1F024B53F82000C840704700BF40
S11319C09000FE1F30B5044683B001200D4601F09F
S11319D087FA02A8002300F8013D00F01DFF94F8E7
S11319E0AA30D806FBD494F8A030D906F7D494F8DA
S11319F0AA3023F0010384F8AA3094F8AA30DA0656
S1131A00FBD494F8A030DB06F7D4042D2BD094F843
S1131A10A02005F0030322F00302134384F8A0304E
S1131A2094F8AA30D806FBD494F8A030D906F7D499
S1131A3094F8AA30042D0CBF43F0010323F00103F2
S1131A4084F8AA3094F8AA30DA06FBD494F8A030CB
S1131A50DB06F7D49DF8070000F0F2FE012001F048
S1131A600FFA03B030BD94F8A03043F0030384F8B8
S1131A70A030D5E790F8AA30DB075ABF90F8A00051
S1131A8000F003000420704710B50446002001F064
S1131A9027FA94F8403063F07F0384F8403094F8D8
S1131AA0403043F0010384F840300020BDE810408A
S1131AB001F0E6B910B50446002001F011FA94F8DB
S1131AC0403023F0010384F8403094F8403003F0B0
S1131AD07F0384F840300020BDE8104001F0D0B905
S1131AE090F84000C009704790F8410000F00100F0
S1131AF0704700BF38B590F8413013F0010401D1AC
S1131B00002038BD0546002001F0EAF995F841307F
S1131B1023F0010385F84130002001F0B1F920469B
S1131B2038BD00BF38B5054600200C4601F0D8F991
S1131B3095F8301004F0010421F001010C4385F8FC
S1131B4030400020BDE8384001F09AB910B5044691
S1131B50002001F0C5F994F8523043F0010384F8F1
S1131B6052300020BDE8104001F08AB910B5044697
S1131B70002001F0B5F994F8523023F0010384F801
S1131B8052300020BDE8104001F07AB970B5044627
S1131B9000200D46164601F0A3F994F83E3003F0F8
S1131BA07F0384F83E3094F83E3006F0070223F0B9
S1131BB0700343EA021284F83E2094F83E1005F0C4
S1131BC0070521F007010D4384F83E500020BDE8CD
S1131BD0704001F055B900BF10B50446002001F073
S1131BE07FF994F83E3063F07F0384F83E300020A0
S1131BF0BDE8104001F044B910B50446002001F0DE
S1131C006FF994F83E3003F07F0384F83E300020EF
S1131C10BDE8104001F034B910B50446002001F0CD
S1131C205FF994F8533043F0010384F853300020F3
S1131C30BDE8104001F024B910B50446002001F0BD
S1131C404FF994F8533023F0010384F85330002003
S1131C50BDE8104001F014B938B5054600200C4623
S1131C6001F03EF995F8243004F0070123F07003E5
S1131C7043EA011185F824100020BDE8384001F042
S1131C80FFB800BF70B40F4B0F4C1D6800211960E2
S1131C9094F823200138B0F1807FD2B20DD2F0261F
S1131CA0072502F0F002586084F8236099601D60F3
S1131CB084F82320012070BC70471D60084670BC66
S1131CC0704700BF10E000E000ED00E090F85030F5
S1131CD001F00F0123F00F03194380F850107047EF
S1131CE090F8500000F00F00704700BF90F850309B
S1131CF063F07F0380F85030704700BF90F8503095
S1131D0003F07F0380F85030704700BF90F8500014
S1131D10C009704738B5054600200C4601F0E0F8CC
S1131D2095F8A51004F0070421F007010C4385F889
S1131D30A5400020BDE8384001F0A2B8024B1B6862
S1131D4003600020704700BF6C34000030B52A4C9B
S1131D5087B0204600F078FE06A8284B0025032211
S1131D600095DB6800F8182D02A9029503950495E7
S1131D7005959847029860604FF6FF7329460193D2
S1131D80FFF718FC28B910E0019B43B1019B013B0C
S1131D90019360680021FFF7F7FB0028F4D0019B52
S1131DA01BB94FF4CD7007B030BD60680621FFF752
S1131DB0B1FF4FF6FF730193FFF776FA60680421D1
S1131DC0FFF792FB04E0019B43B1019B013B0193AC
S1131DD060680421FFF7EEFB0028F4D1019B002B7F
S1131DE0DFD0606804210522FFF718FC6068002139
S1131DF0FFF70CFB0020D6E7A800FE1FA833000065
S1131E0070B169B170B5074E044670680D46FFF7AE
S1131E104DFC294620707068FFF74CFD002070BD12
S1131E2001207047A800FE1F70B582B000294CD075
S1131E300546002846D0334C6068FFF71BFE042893
S1131E4006463FD060686946FFF734FD23689A6808
S1131E500AB1032E4AD0DA6852B3022E28D193F87D
S1131E6029205969160703D59DF8000088423AD302
S1131E70D00603D59DF80100884234D3960603D5D5
S1131E809DF8020088422ED3500628D4120603D5AA
S1131E909DF805208A4226D393F82A30DB0703D520
S1131EA09DF804308B421ED39DF806308B421AD322
S1131EB02946012000F0DAFD6068FFF7E5FD002007
S1131EC002B070BD012002B070BD0E4D6868FFF70E
S1131ED00BFE044680B14FF4CB7002B070BD9DF888
S1131EE003008842D2D2052002B070BD93F82920A5
S1131EF019691007B8D4BBE76868FFF7DBFD204613
S1131F00E1E700BFA800FE1F38B5124C6068FFF778
S1131F10EBFD78B16068FFF7C9FB236893F82830BC
S1131F2013F0300F054603D05B0608D405280DD006
S1131F30032D0BD06068FFF7DDFD002038BD60681D
S1131F40FFF7CEFB052DF3D10328F3D140F2971010
S1131F5038BD00BFA800FE1F08B5034B01465868F2
S1131F60FFF7E0FD002008BDA800FE1F08B5034BE5
S1131F705868FFF7EBFD002008BD00BFA800FE1F56
S1131F8008B5034B5868FFF7F1FD002008BD00BFFA
S1131F90A800FE1F08B5044B0A4601465868FFF71F
S1131FA0F5FD002008BD00BFA800FE1F08B5034BC7
S1131FB05868FFF711FE002008BD00BFA800FE1FEF
S1131FC008B5034B5868FFF717FE002008BD00BF93
S1131FD0A800FE1F38B50446FFF74EFB08B90320DE
S1131FE038BD631E012B11D9042C0FD02CB1032C46
S1131FF003D0052C01D0002038BD114D214668685E
S1132000FFF7D8FA78B94FF4C87038BD0C4B2146A5
S11320105868FFF7CFFA40F29113002814BF18460E
S11320204FF4C87038BD68682146FFF7ADFA40F236
S1132030931300280CBF18464FF4C97038BD00BF75
S1132040A800FE1F70B506464FF6FE7440F29315C5
S113205001E0013C0CD03046FFF7BCFFA842F8D0A9
S113206038B16FF4C873C318022B38BF002070BD99
S1132070284670BD70B582B00D460446FFF7FCFAE1
S113208010B9032002B070BD5C4E052C2146706867
S113209015D0FFF78FFA18B140F2911002B070BD5D
S11320A0012C4ED9032C23D0631E012B65D9042C9B
S11320B02BD0002C67D0032C1FD00020E2E7FFF7C1
S11320C079FA002844D1002D39D07068FFF7EEFA70
S11320D00528E1D02846FFF70BFC0028D1D0706812
S11320E02978FFF767FA002854D14FF4CA70C9E77A
S11320F07068FFF7BFFC042828D070682146FFF7FA
S113210043FA58B340F29310BCE721467068FFF7D6
S11321109BF94FF6FF73019304E0019B43B1019BCC
S1132120013B019370680421FFF744FA0028F4D0BE
S1132130019B002B0CBF4FF4CD700020A2E70120BF
S1132140A0E77068FFF796FC0428ADD1052099E755
S11321507068FFF7C3F840F2911093E73368706832
S113216093F82710FFF734F970680021FFF75AFA43
S1132170706803210922FFF76BFA70682146FFF7A4
S113218063F900207EE770682146FFF7FDF9002817
S1132190B8D1F2E721467068FFF7F6F90028B1D10B
S11321A0336893F828305B0603D570682978FFF705
S11321B0A9FA69787068114CFFF700FB95ED010AE4
S11321C07068FFF7B3FA7068FFF788F8336893F81C
S11321D02810052001F00F01FFF7ECFB33685B6862
S11321E0984288BF0021606898BF0121FFF7EAFB8D
S11321F070680521FFF728F95FE700BFA800FE1FFC
S113220070B582B00446FFF737FA10B9032002B064
S113221070BD2C4D6868FFF749FA84422BD005281D
S113222024D0012C2AD06868264E2146FFF7C2F933
S1132230D0B1022C14D0042C29D01CB1032C01D011
S1132240052C11D168681F4D2146FFF79DF938B957
S113225040F29310DBE770682146FFF7ABF918B141
S113226068682146FFF740F90020D0E76868FFF767
S113227037FAA042D5D140F29110C8E76868114EF0
S1132280FFF72EFC0028E6D040F29510BFE77068F7
S11322902146FFF729F94FF6FF73019304E0019BF0
S11322A043B1019B013B019368680421FFF782F964
S11322B00028F4D1019B002B0CBF4FF4CD700020FB
S11322C0A5E700BFA800FE1F01280FD0022801D0F7
S11322D00020704708B508460021FFF7CBFE40B147
S11322E040F29113984208BF002008BD0846FFF74A
S11322F087BF002008BD00BFF0B587B00C46054677
S1132300FFF7BAF910B9032007B0F0BD002C72D062
S1132310654EA179326892F829301F0764D4D80633
S113232002D560788842EED323F07F0303F0FF00E8
S113233013B163798B42E6D392F82A30DF0702D5D2
S113234023798B42DFD3042D52D0002328468DF805
S113235008308DF81430FFF72DFB062103907068C8
S1132360514FFFF717FB049002A800F0E5FA00288C
S1132370CAD17868FFF79AF9854205D0002D3CD080
S1132380032D3AD0052D38D07068474F0021FFF750
S113239019FB70686946FFF78DFA9DF80620A3794A
S11323A09A423ED221467868FFF74CFA786829466B
S11323B0FFF782F900F0B0FA3C4B042D186039D0D5
S11323C0022D47D0012D4ED0032D51D0052D62D0C2
S11323D070680621FFF7DEFA0123049002A88DF845
S11323E0083000F0A9FA8FE7207888428BD396E76B
S11323F061B1052088E7012086E770682946FFF768
S1132400C3F80028C0D140F293107DE763790BB183
S11324100028EED17068FFF763FB0028E9D1A179A9
S113242093E778682946FFF747F978682146FFF76C
S113243009FABFE733681C4993F82820120625D40B
S11324409A685AB95B68002BC2D070680121FFF703
S1132450B9FABDE733689A68002AF3D0706803219B
S1132460FFF7B0FAB4E733685B68002BB0D0ECE751
S113247033685A68904201D9002AA9D19B689842CE
S11324800ED9002BA4D0002AE8D0DEE748682946FC
S1132490FFF798FA9CE733685B68984298D8D4E7CA
S11324A0002B95D0DAE700BFA800FE1F1C01FE1F19
S11324B000287DD02DE9F047054686B006A8002304
S11324C02F7800F8113D04A98DF810308DF81130E3
S11324D08DF812308DF813308DF814308DF81530D6
S11324E08DF81630FFF78CFC95F815E0EE7C297D0D
S11324F0EA7DAB7D2C7E8DF808E038468DF80A60C5
S11325008DF809108DF80B208DF80C308DF80D40E6
S1132510FFF7B2F818B9032006B0BDE8F0872B78AE
S113252006AA134413F8103C012BF4D0022C41D01A
S1132530DFF8E480D8F8003093F8283013F0300F37
S113254014BF06260526002440F2911905F1040A59
S1132550052CE1B248D002AB185DFFF7B5FE08B117
S11325604845D9D10134B442F2D13846FFF76AFD67
S11325700028D1D105F10C013846FFF7BDFE002833
S1132580CAD19DF80740A74210D006AB234413F8E4
S1132590100C012822D0D8F80400FFF7A1F806ABEC
S11325A00344014613F8100C012810D00020B3E7AF
S11325B0012070472879FFF75FF80028ABD02B790A
S11325C006AA134413F8103C012BB1D1A3E7052C40
S11325D0ECD18F42EAD0FFF777FE9DE72146FFF763
S11325E073FE0028D7D097E79DF80D30022BB2D1A7
S11325F028790021FFF73EFD08B148458CD12879A0
S1132600FFF720FD5146002886D10520FFF732FD53
S11326100028A7D0A4E700BFA800FE1F51B170B5E1
S113262000250D600C460646FFF73AF828B9032347
S1132630184670BD012318467047044B314658684C
S1132640FFF7A8F92B462060184670BDA800FE1FAE
S113265038B5114D2B6893F8290010F0010000D112
S113266038BD002000F03CFC68680C4CFFF73EFBD2
S113267001E06CB1013C6868FFF748FB0028F8D022
S1132680002000F0FDFB002C0CBF1420002038BDFE
S113269000F0F6FB1420E3E7A800FE1FFFFF0F0085
S11326A038B5114D2B6893F8290010F0010000D1C2
S11326B038BD002000F014FC68680C4CFFF71EFBCA
S11326C001E064B1013C6868FFF720FB0028F8D101
S11326D000F0D6FB002C0CBF1420002038BD20468F
S11326E000F0CEFB1420E3E7A800FE1FFFFF0F005D
S11326F0F8B51C4D2B6893F8293013F0010324D04E
S1132700194B1E5CFF2E01D10320F8BD002000F000
S1132710E7FB6868154CFFF7F9FA0746FFF7C0FFB7
S113272068683146FFF7D2FA01E09CB1013C686861
S1132730FFF7D6FA8642F8D14FB9002000F0A0FB8B
S1132740002C0CBF14200020F8BD1846F8BDFFF77C
S11327507FFFF2E7002FFAD1384600F091FB1420F6
S1132760F8BD00BFA800FE1F64340000FFFF0F0087
S113277008B5054B1A6892F82920920702D55868C3
S1132780FFF74AFA002008BDA800FE1F08B5054B54
S11327901A6892F82920920702D55868FFF74CFA74
S11327A0002008BDA800FE1F08B5064B1A6892F861
S11327B02920520703D501465868FFF74DFA002037
S11327C008BD00BFA800FE1F08B90320704738B534
S11327D00D46044600F0A0F807EE900AF8EE676A8A
S11327E0F7EE007AC7EEA66A07EE905A07EE104A93
S11327F0F8EE677AB8EE477A66EEA77AC7EE277ADC
S1132800FCEEE77A17EE900AFFF73CFA00280CBFBB
S11328101220002038BD00BF68B1084AB2F8003168
S113282003F00103037092F800316FF3000382F8A0
S11328300031002070470120704700BF00C00140F4
S1132840104991F8043143F0010381F80431B1F8DF
S11328500431DB070CD54FF0FF3300E033B1B1F89E
S11328600421D20703F1FF33F8D40BB914207047C5
S1132870044A92F8003160F3000382F8003100202A
S1132880704700BF00C0014070B5214D82B02B6875
S113289098470120FFF7D4FF0021AE680320B0471A
S11328A001211C4AEC698DF80110032301928DF873
S11328B000300320A047B0F5C97FFAD1694605204E
S11328C0B0470520A047B0F5C97FFAD10022012402
S11328D0022369468DF806208DF801308DF8023008
S11328E08DF805308DF800402B698DF803408DF884
S11328F00440052098476B6D04209847AB6A204636
S11329009847EB6A9847EB6C984702B070BD00BFDC
S1132910043400000000A04100B583B002A90023E4
S113292041F8043D034B06209B699847019803B086
S11329305DF804FB04340000037870B423B1012B68
S113294034D0002070BC7047426836498A425BD953
S1132950354B364EF1251D71197A41F00401197277
S1132960197AF02441F00801B24219721C7105D998
S11329701D71197A41F0100119721C712C4B2D49EB
S11329809A4294BF0123022303731C4691F81C311D
S113299003F00703A3423FBF91F81C3123F0070360
S11329A0234381F81C310378012BCAD183681D4A63
S11329B0934233D81C4BF1221A711A7A22F0040282
S11329C01A721A7AF02122F008021A721971164B3F
S11329D0F1221A711A7AF02122F010021A72197176
S11329E01449037B91F81C2102F007029342A8D0FA
S11329F091F81C2103F0070322F00702134381F826
S1132A001C31002070BC70470B498A42B6D8094A71
S1132A10037392F81C31002070BC7047034A934240
S1132A20DED8D4E7000E27070020004000C2EB0BDD
S1132A30FF67890900C00140FFB3C404037843F071
S1132A4003030370704700BF014B0360704700BF6E
S1132A5070340000044B002103F1300243F8041BDE
S1132A609342FBD1704700BFD400FE1F024B43F8D2
S1132A7020100020704700BFD400FE1F08B57A4B19
S1132A80B3F84031D90700F1C180774BB3F8403136
S1132A909A0700F1B080744BB3F840315B0700F142
S1132AA09F80714BB3F84031180700F18E806E4B54
S1132AB0B3F84031D9067CD46B4BB3F84001C0F372
S1132AC08010002869D1684BB3F840311A0658D4F5
S1132AD0654BB3F84031DB0547D4634BB3F8403161
S1132AE0980536D4604BB3F84031590524D45E4B75
S1132AF0B3F840311A0512D45B4BB3F84031DB0410
S1132B0000D408BD594BDB6A002B40F0AA80564A1A
S1132B10B2F8303143F48053A2F8303108BD534B3E
S1132B209B6A002B40F09A804F4AB2F8303143F44C
S1132B300063A2F83031DFE74C4B5B6A002B40F0B6
S1132B408A80494AB2F8303143F48063A2F83031C4
S1132B50CDE7464B1B6A002B7AD1434AB2F8303199
S1132B6043F40073A2F83031BCE7404BDB69002B1F
S1132B706BD13D4AB2F8303143F48073A2F830315E
S1132B80ABE73A4B1B68002B5CD1374AB2F83031C3
S1132B9043F08003A2F830319AE7344B5B68002B92
S1132BA04ED1314AB2F8303143F04003A2F830310B
S1132BB089E72E4B9B69002B3FD12B4AB2F8303169
S1132BC043F01003A2F8303176E7284B5B698BBBE6
S1132BD0254AB2F8303143F00803A2F8303166E7F1
S1132BE0224B1B691BBB204AB2F8303143F004036B
S1132BF0A2F8303155E71D4B9B68ABB91A4AB2F8BD
S1132C00303143F00203A2F8303144E7174BDB685C
S1132C103BB9154AB2F8303143F00103A2F8303120
S1132C2033E703209847F4E702209847E6E70420B7
S1132C309847D8E705209847CAE706209847BCE795
S1132C409847AEE7002098479FE70720984790E70A
S1132C500820984781E70920984772E70A20984797
S1132C6062E70B20984752E700600040D400FE1F43
S1132C700278452A2BD8294B9B5CFF2B25D0F0B436
S1132C8003F020064788407806F0FF0403F01F0590
S1132C90FEB101242B2A04FA05F634D0332A01D1DB
S1132CA0012836D09B091E4A52F8233041BBEFF36A
S1132CB01082012181F31088196821EA0601196044
S1132CC082F310880020F0BC704703207047012075
S1132CD07047134E38449B092D1A012256F82330AD
S1132CE002FA05F60029E2D0EFF3108082F310888F
S1132CF019683143196080F310882046F0BC70478E
S1132D000320F0BC7047072FCCD9013504FA05F62F
S1132D10C8E76A1C00FA02F6C4E700BFAC3800003A
S1132D209C3800000021FFF7A3BF00BF034638B161
S1132D30054A92E80300002283E803001046704726
S1132D4001221046704700BF0C390000A0F10100B9
S1132D500028FBD1704700BF2DE9D04301FB00F4EC
S1132D60FFF7DAFD4FF47A71A4FB018900274FF0D5
S1132D70FF364F4508BF46450C4BB3FBF0F005D377
S1132D80B8FBF0F0800860B9BDE8D0838000B4FBE4
S1132D90F0F0A0FB01018F4208BF8642F3D24FF04E
S1132DA0FF30BDE8D043FFF7D1BF00BF00CA9A3B54
S1132DB00B4A0C4B10B49B1A0B4CDB08236063B119
S1132DC00A4800219388C3F3090340F8043F2368A9
S1132DD001318B4202F10802F4D85DF8044B7047CC
S1132DE000050000000500000401FE1FFC62004015
S1132DF00F4B10B41C687CB10E4B00681A68136842
S1132E00984218BF002304D109E052F8041F8142FC
S1132E1006D00133A342F8D15DF8044B7047002378
S1132E20054A12680021D1545DF8044B704700BF75
S1132E300801FE1F0C01FE1F1001FE1F38B50A4CCD
S1132E400A4D0B480B490C4B0C4A04602D1BAD0872
S1132E500D601A603DB104EB850520460434FFF78C
S1132E60C7FFAC42F9D138BD00050000B006000030
S1132E700C01FE1F0801FE1F1001FE1F0C00FE1FA7
S1132E80EFF31081012383F31088124B33F81020E1
S1132E9092B22AB133F81020013A92B223F81020EA
S1132EA033F810309BB293B910B40B4A0B4CB2F800
S1132EB0FE3334F810009BB243F4254323EA0003A5
S1132EC0A2F8FE3381F310885DF8044B704781F358
S1132ED0108870471401FE1F00E00140F83800001C
S1132EE030B4EFF31084012383F310880D4A32F8D1
S1132EF010309BB25BB90C4D0C49B5F8FE3331F878
S1132F0010109BB243F425430B43A5F8FE3332F86B
S1132F10103001339BB222F8103084F3108830BC97
S1132F20704700BF1401FE1F00E00140F8380000A4
S1132F30024B00221A805A809A8070471401FE1FA7
S1132F4000BE704708B500F005F800F05DF9FEE733
S1132F50704700BF284A38B5D2F8883043F470036C
S1132F60C2F888300020FFF7F3FFFFF773FD234B0F
S1132F701B689847FFF7DCFFFFF786FC204A214BCC
S1132F8021481B68002414809847204A204B9B1A30
S1132F9005D01344214603F8011D9A42FBD11D4874
S1132FA01D4BC01A07D01D4A184412F8011B03F820
S1132FB0011B8342F9D1FFF7AFFC194C194B1A4D91
S1132FC018602D1B0120FFF7C3FF032DC8BF2D1967
S1132FD004DD54F8043B9847AC42FAD1FFF72EFFC6
S1132FE0FFF7E6FE114B12481B6898470020BDE826
S1132FF0384000F01FB800BF00ED00E0A833000027
S1133000CC00FE1FDC32000024390000B000FE1F9B
S11330102C01FE1F7800FE1F0000FE1FB03C0000C4
S11330200000FE1F1C01FE1F0400FE1FC43300002D
S11330300039000000F044B882B04FF0C8430021CA
S11330400091009A1A7D61F300021A751A8DD0B1AD
S1133050202161F30F221A851A8D4FF0C04142F0EE
S113306080021A850A68009240F6FF72194601929E
S113307004E0019B013B0193019A12B18A6A520652
S1133080F7D502B070474FF0C04142F47F421A8531
S11330900A6800921A8D60F3C7121A850A680092B2
S11330A040F6FF711A46019105E0019B013B019333
S11330B0019B002BE5D0936A5B06F6D402B07047FF
S11330C0F8B54D490A684FF0C844002322F0400285
S11330D010200A602063A36123626363C4F8043888
S11330E0227A63F304022272237DFF2243F0010358
S11330F023752261237D662243F001032375226137
S1133100237D992243F0010323752261237D43F03B
S11331100103237501212320FFF71EFE9F23236152
S1133120364B22691A7022695A702169227D99707E
S113313042F0010222751A78EF2A04D000221A7094
S11331405A709A70F8BD5A78402AF7D19A78172A9B
S1133150F4D1052020612A4923690B70227D294B73
S113316042F0010235262275266122691A70227DF9
S113317042F001022275228D042565F303022285A3
S11331802279502765F3030222712761227D42F0E0
S1133190010222751A78012742F002021A7027618F
S11331A00A7822611A782261227D3A4322752561C8
S11331B0227D3A432275228860F302022280206134
S11331C022690A70227D3A432275266122691A70A7
S11331D0237D3B432375238843F040032380A36965
S11331E0DB074FF0C845FAD40120FFF725FF2B7DFC
S11331F06FF300032B75F8BD007004402001FE1F1F
S11332002401FE1F2801FE1F08B500F003F800206A
S113321008BD00BF10B582B06846FFF787FD0F4BAD
S11332205C68019A236A108801219847019A236AED
S11332309088002198470A480121FFF78DFD019AE3
S1133240236A108800219847019A236A90880121F3
S1133250984703480121FFF77FFDE2E71C3900008E
S113326040420F004275696C74207769746820527B
S1133270656E657361732053796E65726779202872
S1133280544D2920536F66747761726520506163D1
S11332906B6167652076657273696F6E20312E33BA
S11332A02E302B6275696C642E316230343564655E
S11332B06663313631000000312E332E30000000B9
S11332C000000301F8B500BFF8BC08BC9E46704777
S11332D0F8B500BFF8BC08BC9E467047A90B0000B7
S11332E0C90A0000210C0000A1080000A507000085
S11332F035080000710A00000D070000F10C000001
S1133300A50900007D070000FD0700005507000027
S11333106D09000089080000020403040404FFFF8F
S1133320000103070F1F3F7F000101020102020396
S11333300102020302030304010202030203030461
S11333400203030403040405010202030203030449
S11333500203030403040405020303040304040531
S11333600304040504050506010202030203030421
S11333700203030403040405020303040304040511
S113338003040405040505060203030403040405F9
S113339003040405040505060304040504050506E1
S11333A00405050605060607950E0000BD0D000080
S11333B0E50D0000510F0000150E0000810E000005
S11333C00301030129120000F91100009511000006
S11333D0A9110000BD110000D1110000E511000089
S11333E003010201010002000400FFFF01000200CA
S11333F00300FFFF000001000200FFFF00000100C6
S1133400000002004D1D0000B124000075200000E2
S113341001220000F9220000011E00001D26000008
S1133420D51F0000291E0000091F0000591F0000BD
S11334306D1F0000811F0000951F0000AD1F0000DC
S1133440C11F0000F126000051260000A126000043
S1133450712700008D270000A9270000C92700005C
S11334603D1D000004FF000201FFFFFF07010201F0
S113347040420F000000000040420F000000000026
S11334800400000002000000002D310100366E012E
S113349030040201020A1E00D0FE010002000310E3
S11334A0040000001C00000013000000030E0010C4
S11334B0FFFFFFFFFFFFFFFFFFFFFFFFFFFFFFFF18
S11334C05237465337473237483341303143464306
S11334D057533134343141313030000000000000A2
S11334E002B06400F000000001000810F3E0BFB671
S11334F0057933498B43F24F1693A05D1E7A1DD88C
S1133500700D7A8242786A5EC35C0B190400501114
S113351000000040FFFF0008FFC110081FFF1B054B
S11335207F0028073F002F063E8047804C806A00BA
S113353064806B00820056806E00BD80B080830082
S11335406F005B807000720071007300740075007E
S11335508A8086808D80CF8076006C006D00B58077
S11335607B007A007C00A08077007800790090804E
S11335709A80978084009D80A3807D00D580D88028
S1133580A6808500AD80A980DE807E007F0080005B
S1133590810000000607021000000000FFFF000089
S11335A0002000000001000000000100FFFF3F00B8
S11335B00080000000010000060701100000104018
S11335C0FFFF104040000000040000000A00041047
S11335D0070B0B0F0000FE1FFFFFFF1F0000002062
S11335E0FFFF032000000420FFFF072000E00F205E
S11335F0FFFF0F20010700100800400000500040AA
S11336000803011000520040015F00100100000C8B
S113361000000040011F001001000001000C0040E8
S11336200003001001000001000D0040010700101C
S11336300100000100E07F400003001001001000C1
S113364000C07F40E0010310B0010310C00103106B
S1133650200003105400031030000F1070040310F6
S1133660000807101000031046040310410503105E
S113367040070310000C0310400407104204031019
S113368044040310D0050310E0050B10F0050310EB
S11336900F07071040090310000E0711400E031016
S11336A0600E03106000071010040310B007071029
S11336B080040310020000100300000100300540E4
S11336C007030300000F00100A0020000000074059
S11336D0000F00100200000100200740020000104B
S11336E00E000001008007403F1F1F1F0F0F0F0F28
S11336F00707070707070000000300100100100078
S1133700F08F074000030010040000010020044073
S113371000030010020000010040084000070010F0
S113372006000001005008400007001002000010CD
S113373000000540000700100200000400200640BD
S113374002000010020000020040064007070000CB
S1133750000700110200000100E004400103001012
S1133760C00004000008044008030110000D0440D8
S1133770040002100200000200C005402B2B0000D0
S11337807F007F003F000F007F006F001F000F00CD
S1133790040001100C00200000000440070B0B0B78
S11337A00B03030303030303FFCFFFC7FFFFFFFF65
S11337B0FF30FF30FFFFFFFFFFFFFFFFFFFFFF387A
S11337C0FFFFFFFFFFFFFF00FF3F7F00FFFFE3015D
S11337D0FFFF0307FF0003000400021001002000A4
S11337E00010084003000000FFFFFF0F030000006B
S11337F00003001001000002000000640117001023
S11338000100001000000940001F00200100000218
S113381000000640010300100100000100440640BE
S113382001030010010000010045064001030010DF
S113383001000008005006400003001002000004CC
S113384000580640FFFFFFFFFFFFFFFFFFFFFFFFE2
S1133850FFFFFFFFFFFFFFFFFFFFFFFFFFFFFFFF74
S1133860FFFFFFFFFFFFFFFFFFFFFFFFFFFFFFFF64
S1133870FFFFFFFFFFFFFFFFFFFFFFFFFFFFFFFF54
S1133880FFFFFFFFFFFFFFFFFFFFFFFFFFFFFFFF44
S1133890FFFFFFFFFFFFFFFF725ABC9E1CE00140C9
S11338A0007004400470044008700440FFFFFFFFF0
S11338B0FFFFFF3636FFFF8EFFFFFFFFFF808D8186
S11338C05F4953839FFFFFFFFFFFFFFFD0F4D6FF45
S11338D0DCFFFFFFFFFFFFE5EEFFFFC34245466B42
S11338E08C8988FFFFFFFFFFFFFFFFFF4F6D82847E
S11338F08685FFFF00050000010002000800FFFFAD
S113390001000000000000000000000003000000AF
S113391014390000000601060206FFFF0000000043
S1133920DC320000700000002C3900000080000030
S11339300000000000800000010000000080000082
S113394002000000004000000400000000400000ED
S11339500500000000400000060000000080000098
S11339600800000000800000090000000040000082
S11339700A000000008000000E000000008000002B
S11339800F0000000004010600010000000401060D
S11339900101000000040106020100000004010608
S11339A003010000000401040401000000040104F8
S11339B005010000000C01040601000004040000DD
S11339C007010000000001000801000000000100E0
S11339D009010000000001000A010000004000008D
S11339E00B010000000000000C01000004040000B2
S11339F00D010000000C01040202000000000000A0
S1133A00030200000000010C040200000000010C8D
S1133A10050200000000010C060200000000010C79
S1133A2007020000000001090C0200000000010967
S1133A300D02000000000100000300000004010466
S1133A400103000000040104020300000000000060
S1133A500303000000040104040300000004010443
S1133A6005030000000C0104060300000404000028
S1133A700703000000000000080300000404000025
S1133A8009030000000000000A0300000000000019
S1133A900B030000000000000C03000000040119E7
S1133AA00D030000000401190E03000000040119B5
S1133AB00F0300000040000000040000000001109B
S1133AC001040000000001100204000000040117BA
S1133AD0030400000004011704040000000C011793
S1133AE005040000000C0117060400000000011387
S1133AF0070400000000010C080400000000010C91
S1133B0009040000000401040A0400000004010484
S1133B100B040000000C01040C0400000404000069
S1133B200D0400000000010C0E0400000000010C54
S1133B300F040000000C011100050000000C01112D
S1133B4001050000000C011102050000000C011128
S1133B5003050000000C011104050000000C011114
S1133B60050500000000000006050000000000003C
S1133B70070500000404000000060000040400001F
S1133B80010600000404000002060000000000001A
S1133B90030600000000000004060000000000000E
S1133BA005060000000401190606000000040119BE
S1133BB007060000000000000806000000000000E6
S1133BC00D060000000000000E06000000040119AC
S1133BD00F060000000C011700070000000C01177D
S1133BE001070000000C011702070000000C011778
S1133BF003070000000C011704070000000C011764
S1133C000507000000040105060700000004010583
S1133C10070700000404000000080000040400007A
S1133C200108000000040119020800000004011941
S1133C300308000000040119040800000404000043
S1133C4006080000000C0119000900000004011915
S1133C50010900000004011905090000000401190C
S1133C6006090000000401190709000000040119F5
S1133C700809000000040119000A000000040119E9
S1133C80010A000000040119080A000000040119D7
S1133C90090A0000000401190A0A000000000114C6
S1133CA0000B000000000114010B000000000000E4
S1133CB0D5060000B106000000000000000000006E
S1133CC000000000000000000000000000000000F0
S1133CD000000000000000000000000000000000E0
S1133CE000000000000000000000000000000000D0
S1133CF000000000000000000000000000000000C0
S1133D0000000000000000000000000000000000AF
S1133D10000000000000000000000000000000009F
S10B3D20000000000000000097
S9032F4588
